{
  "contractName": "ERC777Reentrancy",
  "abi": [
    {
      "inputs": [],
      "stateMutability": "payable",
      "type": "constructor",
      "payable": true
    },
    {
      "anonymous": false,
      "inputs": [
        {
          "indexed": true,
          "internalType": "address",
          "name": "owner",
          "type": "address"
        },
        {
          "indexed": true,
          "internalType": "address",
          "name": "spender",
          "type": "address"
        },
        {
          "indexed": false,
          "internalType": "uint256",
          "name": "value",
          "type": "uint256"
        }
      ],
      "name": "Approval",
      "type": "event"
    },
    {
      "anonymous": false,
      "inputs": [
        {
          "indexed": true,
          "internalType": "address",
          "name": "operator",
          "type": "address"
        },
        {
          "indexed": true,
          "internalType": "address",
          "name": "tokenHolder",
          "type": "address"
        }
      ],
      "name": "AuthorizedOperator",
      "type": "event"
    },
    {
      "anonymous": false,
      "inputs": [
        {
          "indexed": true,
          "internalType": "address",
          "name": "operator",
          "type": "address"
        },
        {
          "indexed": true,
          "internalType": "address",
          "name": "from",
          "type": "address"
        },
        {
          "indexed": false,
          "internalType": "uint256",
          "name": "amount",
          "type": "uint256"
        },
        {
          "indexed": false,
          "internalType": "bytes",
          "name": "data",
          "type": "bytes"
        },
        {
          "indexed": false,
          "internalType": "bytes",
          "name": "operatorData",
          "type": "bytes"
        }
      ],
      "name": "Burned",
      "type": "event"
    },
    {
      "anonymous": false,
      "inputs": [
        {
          "indexed": true,
          "internalType": "address",
          "name": "operator",
          "type": "address"
        },
        {
          "indexed": true,
          "internalType": "address",
          "name": "to",
          "type": "address"
        },
        {
          "indexed": false,
          "internalType": "uint256",
          "name": "amount",
          "type": "uint256"
        },
        {
          "indexed": false,
          "internalType": "bytes",
          "name": "data",
          "type": "bytes"
        },
        {
          "indexed": false,
          "internalType": "bytes",
          "name": "operatorData",
          "type": "bytes"
        }
      ],
      "name": "Minted",
      "type": "event"
    },
    {
      "anonymous": false,
      "inputs": [
        {
          "indexed": true,
          "internalType": "address",
          "name": "operator",
          "type": "address"
        },
        {
          "indexed": true,
          "internalType": "address",
          "name": "tokenHolder",
          "type": "address"
        }
      ],
      "name": "RevokedOperator",
      "type": "event"
    },
    {
      "anonymous": false,
      "inputs": [
        {
          "indexed": true,
          "internalType": "address",
          "name": "operator",
          "type": "address"
        },
        {
          "indexed": true,
          "internalType": "address",
          "name": "from",
          "type": "address"
        },
        {
          "indexed": true,
          "internalType": "address",
          "name": "to",
          "type": "address"
        },
        {
          "indexed": false,
          "internalType": "uint256",
          "name": "amount",
          "type": "uint256"
        },
        {
          "indexed": false,
          "internalType": "bytes",
          "name": "data",
          "type": "bytes"
        },
        {
          "indexed": false,
          "internalType": "bytes",
          "name": "operatorData",
          "type": "bytes"
        }
      ],
      "name": "Sent",
      "type": "event"
    },
    {
      "anonymous": false,
      "inputs": [
        {
          "indexed": true,
          "internalType": "address",
          "name": "from",
          "type": "address"
        },
        {
          "indexed": true,
          "internalType": "address",
          "name": "to",
          "type": "address"
        },
        {
          "indexed": false,
          "internalType": "uint256",
          "name": "value",
          "type": "uint256"
        }
      ],
      "name": "Transfer",
      "type": "event"
    },
    {
      "inputs": [
        {
          "internalType": "address",
          "name": "holder",
          "type": "address"
        },
        {
          "internalType": "address",
          "name": "spender",
          "type": "address"
        }
      ],
      "name": "allowance",
      "outputs": [
        {
          "internalType": "uint256",
          "name": "",
          "type": "uint256"
        }
      ],
      "stateMutability": "view",
      "type": "function",
      "constant": true
    },
    {
      "inputs": [
        {
          "internalType": "address",
          "name": "spender",
          "type": "address"
        },
        {
          "internalType": "uint256",
          "name": "value",
          "type": "uint256"
        }
      ],
      "name": "approve",
      "outputs": [
        {
          "internalType": "bool",
          "name": "",
          "type": "bool"
        }
      ],
      "stateMutability": "nonpayable",
      "type": "function"
    },
    {
      "inputs": [
        {
          "internalType": "address",
          "name": "operator",
          "type": "address"
        }
      ],
      "name": "authorizeOperator",
      "outputs": [],
      "stateMutability": "nonpayable",
      "type": "function"
    },
    {
      "inputs": [
        {
          "internalType": "address",
          "name": "tokenHolder",
          "type": "address"
        }
      ],
      "name": "balanceOf",
      "outputs": [
        {
          "internalType": "uint256",
          "name": "",
          "type": "uint256"
        }
      ],
      "stateMutability": "view",
      "type": "function",
      "constant": true
    },
    {
      "inputs": [
        {
          "internalType": "uint256",
          "name": "amount",
          "type": "uint256"
        },
        {
          "internalType": "bytes",
          "name": "data",
          "type": "bytes"
        }
      ],
      "name": "burn",
      "outputs": [],
      "stateMutability": "nonpayable",
      "type": "function"
    },
    {
      "inputs": [],
      "name": "decimals",
      "outputs": [
        {
          "internalType": "uint8",
          "name": "",
          "type": "uint8"
        }
      ],
      "stateMutability": "pure",
      "type": "function",
      "constant": true
    },
    {
      "inputs": [],
      "name": "defaultOperators",
      "outputs": [
        {
          "internalType": "address[]",
          "name": "",
          "type": "address[]"
        }
      ],
      "stateMutability": "view",
      "type": "function",
      "constant": true
    },
    {
      "inputs": [],
      "name": "granularity",
      "outputs": [
        {
          "internalType": "uint256",
          "name": "",
          "type": "uint256"
        }
      ],
      "stateMutability": "view",
      "type": "function",
      "constant": true
    },
    {
      "inputs": [
        {
          "internalType": "address",
          "name": "operator",
          "type": "address"
        },
        {
          "internalType": "address",
          "name": "tokenHolder",
          "type": "address"
        }
      ],
      "name": "isOperatorFor",
      "outputs": [
        {
          "internalType": "bool",
          "name": "",
          "type": "bool"
        }
      ],
      "stateMutability": "view",
      "type": "function",
      "constant": true
    },
    {
      "inputs": [],
      "name": "name",
      "outputs": [
        {
          "internalType": "string",
          "name": "",
          "type": "string"
        }
      ],
      "stateMutability": "view",
      "type": "function",
      "constant": true
    },
    {
      "inputs": [
        {
          "internalType": "address",
          "name": "account",
          "type": "address"
        },
        {
          "internalType": "uint256",
          "name": "amount",
          "type": "uint256"
        },
        {
          "internalType": "bytes",
          "name": "data",
          "type": "bytes"
        },
        {
          "internalType": "bytes",
          "name": "operatorData",
          "type": "bytes"
        }
      ],
      "name": "operatorBurn",
      "outputs": [],
      "stateMutability": "nonpayable",
      "type": "function"
    },
    {
      "inputs": [
        {
          "internalType": "address",
          "name": "sender",
          "type": "address"
        },
        {
          "internalType": "address",
          "name": "recipient",
          "type": "address"
        },
        {
          "internalType": "uint256",
          "name": "amount",
          "type": "uint256"
        },
        {
          "internalType": "bytes",
          "name": "data",
          "type": "bytes"
        },
        {
          "internalType": "bytes",
          "name": "operatorData",
          "type": "bytes"
        }
      ],
      "name": "operatorSend",
      "outputs": [],
      "stateMutability": "nonpayable",
      "type": "function"
    },
    {
      "inputs": [],
      "name": "registry",
      "outputs": [
        {
          "internalType": "contract IERC1820Registry",
          "name": "",
          "type": "address"
        }
      ],
      "stateMutability": "view",
      "type": "function",
      "constant": true
    },
    {
      "inputs": [
        {
          "internalType": "address",
          "name": "operator",
          "type": "address"
        }
      ],
      "name": "revokeOperator",
      "outputs": [],
      "stateMutability": "nonpayable",
      "type": "function"
    },
    {
      "inputs": [
        {
          "internalType": "address",
          "name": "recipient",
          "type": "address"
        },
        {
          "internalType": "uint256",
          "name": "amount",
          "type": "uint256"
        },
        {
          "internalType": "bytes",
          "name": "data",
          "type": "bytes"
        }
      ],
      "name": "send",
      "outputs": [],
      "stateMutability": "nonpayable",
      "type": "function"
    },
    {
      "inputs": [],
      "name": "symbol",
      "outputs": [
        {
          "internalType": "string",
          "name": "",
          "type": "string"
        }
      ],
      "stateMutability": "view",
      "type": "function",
      "constant": true
    },
    {
      "inputs": [],
      "name": "totalSupply",
      "outputs": [
        {
          "internalType": "uint256",
          "name": "",
          "type": "uint256"
        }
      ],
      "stateMutability": "view",
      "type": "function",
      "constant": true
    },
    {
      "inputs": [
        {
          "internalType": "address",
          "name": "recipient",
          "type": "address"
        },
        {
          "internalType": "uint256",
          "name": "amount",
          "type": "uint256"
        }
      ],
      "name": "transfer",
      "outputs": [
        {
          "internalType": "bool",
          "name": "",
          "type": "bool"
        }
      ],
      "stateMutability": "nonpayable",
      "type": "function"
    },
    {
      "inputs": [
        {
          "internalType": "address",
          "name": "holder",
          "type": "address"
        },
        {
          "internalType": "address",
          "name": "recipient",
          "type": "address"
        },
        {
          "internalType": "uint256",
          "name": "amount",
          "type": "uint256"
        }
      ],
      "name": "transferFrom",
      "outputs": [
        {
          "internalType": "bool",
          "name": "",
          "type": "bool"
        }
      ],
      "stateMutability": "nonpayable",
      "type": "function"
    },
    {
      "inputs": [
        {
          "internalType": "uint256",
          "name": "amount",
          "type": "uint256"
        }
      ],
      "name": "vuln",
      "outputs": [],
      "stateMutability": "nonpayable",
      "type": "function"
    }
  ],
  "bytecode": "0x6080604052731820a4b7618bde71dce8cdc73aab6c95905fad24600960006101000a81548173ffffffffffffffffffffffffffffffffffffffff021916908373ffffffffffffffffffffffffffffffffffffffff1602179055506040518060400160405280601081526020017f4552433737375265656e7472616e6379000000000000000000000000000000008152506040518060400160405280600381526020017f4552450000000000000000000000000000000000000000000000000000000000815250600067ffffffffffffffff811115620000e357620000e262000da6565b5b604051908082528060200260200182016040528015620001125781602001602082028036833780820191505090505b5082600290805190602001906200012b929190620007b2565b50816003908051906020019062000144929190620007b2565b5080600490805190602001906200015d92919062000843565b5060005b8151811015620001f65760016005600084848151811062000187576200018662000d77565b5b602002602001015173ffffffffffffffffffffffffffffffffffffffff1673ffffffffffffffffffffffffffffffffffffffff16815260200190815260200160002060006101000a81548160ff0219169083151502179055508080620001ed9062000ccb565b91505062000161565b50731820a4b7618bde71dce8cdc73aab6c95905fad2473ffffffffffffffffffffffffffffffffffffffff166329965a1d307fac7fbab5f54a3ca8194167523c6753bfeb96a445279294b6125b68cce2177054306040518463ffffffff1660e01b81526004016200026a9392919062000aa4565b600060405180830381600087803b1580156200028557600080fd5b505af11580156200029a573d6000803e3d6000fd5b50505050731820a4b7618bde71dce8cdc73aab6c95905fad2473ffffffffffffffffffffffffffffffffffffffff166329965a1d307faea199e31a596269b42cdafd93407f14436db6e4cad65417994c2eb37381e05a306040518463ffffffff1660e01b8152600401620003119392919062000aa4565b600060405180830381600087803b1580156200032c57600080fd5b505af115801562000341573d6000803e3d6000fd5b505050505050506200037c3334604051806020016040528060008152506040518060200160405280600081525060006200038260201b60201c565b62000ea3565b600073ffffffffffffffffffffffffffffffffffffffff168573ffffffffffffffffffffffffffffffffffffffff161415620003f5576040517f08c379a0000000000000000000000000000000000000000000000000000000008152600401620003ec9062000ae1565b60405180910390fd5b6000620004076200058360201b60201c565b90506200041e81600088886200058b60201b60201c565b846001600082825462000432919062000bba565b92505081905550846000808873ffffffffffffffffffffffffffffffffffffffff1673ffffffffffffffffffffffffffffffffffffffff168152602001908152602001600020600082825462000489919062000bba565b92505081905550620004a881600088888888886200059160201b60201c565b8573ffffffffffffffffffffffffffffffffffffffff168173ffffffffffffffffffffffffffffffffffffffff167f2fe5be0146f74c5bce36c0b80911af6c7d86ff27e89d5cfa61fc681327954e5d8787876040516200050b9392919062000b42565b60405180910390a38573ffffffffffffffffffffffffffffffffffffffff16600073ffffffffffffffffffffffffffffffffffffffff167fddf252ad1be2c89b69c2b068fc378daa952ba7f163c4a11628f55a4df523b3ef8760405162000573919062000b25565b60405180910390a3505050505050565b600033905090565b50505050565b6000731820a4b7618bde71dce8cdc73aab6c95905fad2473ffffffffffffffffffffffffffffffffffffffff1663aabbb8ca877fb281fc8c12954d22544db45de3159a39272895b169a852b314f9cc762e44c53b6040518363ffffffff1660e01b81526004016200060492919062000a77565b60206040518083038186803b1580156200061d57600080fd5b505afa15801562000632573d6000803e3d6000fd5b505050506040513d601f19601f8201168201806040525081019062000658919062000908565b9050600073ffffffffffffffffffffffffffffffffffffffff168173ffffffffffffffffffffffffffffffffffffffff16146200070d578073ffffffffffffffffffffffffffffffffffffffff166223de298989898989896040518763ffffffff1660e01b8152600401620006d396959493929190620009fc565b600060405180830381600087803b158015620006ee57600080fd5b505af115801562000703573d6000803e3d6000fd5b5050505062000785565b81156200078457620007408673ffffffffffffffffffffffffffffffffffffffff166200078f60201b6200103f1760201c565b1562000783576040517f08c379a00000000000000000000000000000000000000000000000000000000081526004016200077a9062000b03565b60405180910390fd5b5b5b5050505050505050565b6000808273ffffffffffffffffffffffffffffffffffffffff163b119050919050565b828054620007c09062000c95565b90600052602060002090601f016020900481019282620007e4576000855562000830565b82601f10620007ff57805160ff191683800117855562000830565b8280016001018555821562000830579182015b828111156200082f57825182559160200191906001019062000812565b5b5090506200083f9190620008d2565b5090565b828054828255906000526020600020908101928215620008bf579160200282015b82811115620008be5782518260006101000a81548173ffffffffffffffffffffffffffffffffffffffff021916908373ffffffffffffffffffffffffffffffffffffffff1602179055509160200191906001019062000864565b5b509050620008ce9190620008d2565b5090565b5b80821115620008ed576000816000905550600101620008d3565b5090565b600081519050620009028162000e89565b92915050565b60006020828403121562000921576200092062000dd5565b5b60006200093184828501620008f1565b91505092915050565b620009458162000c17565b82525050565b620009568162000c2b565b82525050565b6000620009698262000b8d565b62000975818562000b98565b93506200098781856020860162000c5f565b620009928162000dda565b840191505092915050565b6000620009ac60208362000ba9565b9150620009b98262000deb565b602082019050919050565b6000620009d3604d8362000ba9565b9150620009e08262000e14565b606082019050919050565b620009f68162000c55565b82525050565b600060c08201905062000a1360008301896200093a565b62000a2260208301886200093a565b62000a3160408301876200093a565b62000a406060830186620009eb565b818103608083015262000a5481856200095c565b905081810360a083015262000a6a81846200095c565b9050979650505050505050565b600060408201905062000a8e60008301856200093a565b62000a9d60208301846200094b565b9392505050565b600060608201905062000abb60008301866200093a565b62000aca60208301856200094b565b62000ad960408301846200093a565b949350505050565b6000602082019050818103600083015262000afc816200099d565b9050919050565b6000602082019050818103600083015262000b1e81620009c4565b9050919050565b600060208201905062000b3c6000830184620009eb565b92915050565b600060608201905062000b596000830186620009eb565b818103602083015262000b6d81856200095c565b9050818103604083015262000b8381846200095c565b9050949350505050565b600081519050919050565b600082825260208201905092915050565b600082825260208201905092915050565b600062000bc78262000c55565b915062000bd48362000c55565b9250827fffffffffffffffffffffffffffffffffffffffffffffffffffffffffffffffff0382111562000c0c5762000c0b62000d19565b5b828201905092915050565b600062000c248262000c35565b9050919050565b6000819050919050565b600073ffffffffffffffffffffffffffffffffffffffff82169050919050565b6000819050919050565b60005b8381101562000c7f57808201518184015260208101905062000c62565b8381111562000c8f576000848401525b50505050565b6000600282049050600182168062000cae57607f821691505b6020821081141562000cc55762000cc462000d48565b5b50919050565b600062000cd88262000c55565b91507fffffffffffffffffffffffffffffffffffffffffffffffffffffffffffffffff82141562000d0e5762000d0d62000d19565b5b600182019050919050565b7f4e487b7100000000000000000000000000000000000000000000000000000000600052601160045260246000fd5b7f4e487b7100000000000000000000000000000000000000000000000000000000600052602260045260246000fd5b7f4e487b7100000000000000000000000000000000000000000000000000000000600052603260045260246000fd5b7f4e487b7100000000000000000000000000000000000000000000000000000000600052604160045260246000fd5b600080fd5b6000601f19601f8301169050919050565b7f4552433737373a206d696e7420746f20746865207a65726f2061646472657373600082015250565b7f4552433737373a20746f6b656e20726563697069656e7420636f6e747261637460008201527f20686173206e6f20696d706c656d656e74657220666f7220455243373737546f60208201527f6b656e73526563697069656e7400000000000000000000000000000000000000604082015250565b62000e948162000c17565b811462000ea057600080fd5b50565b61305e8062000eb36000396000f3fe608060405234801561001057600080fd5b506004361061012c5760003560e01c8063959b8c3f116100ad578063dd62ed3e11610071578063dd62ed3e14610347578063e3bb15f014610377578063fad8b32a14610393578063fc673c4f146103af578063fe9d9303146103cb5761012c565b8063959b8c3f1461029157806395d89b41146102ad5780639bd9bbc6146102cb578063a9059cbb146102e7578063d95b6371146103175761012c565b8063313ce567116100f4578063313ce567146101eb578063556f0dc71461020957806362ad1b831461022757806370a08231146102435780637b103999146102735761012c565b806306e485381461013157806306fdde031461014f578063095ea7b31461016d57806318160ddd1461019d57806323b872dd146101bb575b600080fd5b6101396103e7565b60405161014691906125b9565b60405180910390f35b610157610475565b6040516101649190612611565b60405180910390f35b61018760048036038101906101829190611fec565b610507565b60405161019491906125db565b60405180910390f35b6101a561052a565b6040516101b29190612813565b60405180910390f35b6101d560048036038101906101d09190611ee6565b610534565b6040516101e291906125db565b60405180910390f35b6101f3610585565b6040516102009190612873565b60405180910390f35b61021161058e565b60405161021e9190612813565b60405180910390f35b610241600480360381019061023c9190611f39565b610597565b005b61025d60048036038101906102589190611e4c565b6105fd565b60405161026a9190612813565b60405180910390f35b61027b610645565b60405161028891906125f6565b60405180910390f35b6102ab60048036038101906102a69190611e4c565b61066b565b005b6102b56108cc565b6040516102c29190612611565b60405180910390f35b6102e560048036038101906102e0919061202c565b61095e565b005b61030160048036038101906102fc9190611fec565b610988565b60405161030e91906125db565b60405180910390f35b610331600480360381019061032c9190611ea6565b6109c8565b60405161033e91906125db565b60405180910390f35b610361600480360381019061035c9190611ea6565b610b79565b60405161036e9190612813565b60405180910390f35b610391600480360381019061038c919061213a565b610c00565b005b6103ad60048036038101906103a89190611e4c565b610d56565b005b6103c960048036038101906103c4919061209b565b610fb7565b005b6103e560048036038101906103e09190612167565b611019565b005b6060600480548060200260200160405190810160405280929190818152602001828054801561046b57602002820191906000526020600020905b8160009054906101000a900473ffffffffffffffffffffffffffffffffffffffff1673ffffffffffffffffffffffffffffffffffffffff1681526020019060010190808311610421575b5050505050905090565b60606002805461048490612ab6565b80601f01602080910402602001604051908101604052809291908181526020018280546104b090612ab6565b80156104fd5780601f106104d2576101008083540402835291602001916104fd565b820191906000526020600020905b8154815290600101906020018083116104e057829003601f168201915b5050505050905090565b600080610512611062565b905061051f81858561106a565b600191505092915050565b6000600154905090565b60008061053f611062565b905061054c858285611235565b610579858585604051806020016040528060008152506040518060200160405280600081525060006112c1565b60019150509392505050565b60006012905090565b60006001905090565b6105a86105a2611062565b866109c8565b6105e7576040517f08c379a00000000000000000000000000000000000000000000000000000000081526004016105de90612793565b60405180910390fd5b6105f6858585858560016112c1565b5050505050565b60008060008373ffffffffffffffffffffffffffffffffffffffff1673ffffffffffffffffffffffffffffffffffffffff168152602001908152602001600020549050919050565b600960009054906101000a900473ffffffffffffffffffffffffffffffffffffffff1681565b8073ffffffffffffffffffffffffffffffffffffffff1661068a611062565b73ffffffffffffffffffffffffffffffffffffffff1614156106e1576040517f08c379a00000000000000000000000000000000000000000000000000000000081526004016106d8906126d3565b60405180910390fd5b600560008273ffffffffffffffffffffffffffffffffffffffff1673ffffffffffffffffffffffffffffffffffffffff16815260200190815260200160002060009054906101000a900460ff16156107cb576007600061073f611062565b73ffffffffffffffffffffffffffffffffffffffff1673ffffffffffffffffffffffffffffffffffffffff16815260200190815260200160002060008273ffffffffffffffffffffffffffffffffffffffff1673ffffffffffffffffffffffffffffffffffffffff16815260200190815260200160002060006101000a81549060ff0219169055610868565b6001600660006107d9611062565b73ffffffffffffffffffffffffffffffffffffffff1673ffffffffffffffffffffffffffffffffffffffff16815260200190815260200160002060008373ffffffffffffffffffffffffffffffffffffffff1673ffffffffffffffffffffffffffffffffffffffff16815260200190815260200160002060006101000a81548160ff0219169083151502179055505b610870611062565b73ffffffffffffffffffffffffffffffffffffffff168173ffffffffffffffffffffffffffffffffffffffff167ff4caeb2d6ca8932a215a353d0703c326ec2d81fc68170f320eb2ab49e9df61f960405160405180910390a350565b6060600380546108db90612ab6565b80601f016020809104026020016040519081016040528092919081815260200182805461090790612ab6565b80156109545780601f1061092957610100808354040283529160200191610954565b820191906000526020600020905b81548152906001019060200180831161093757829003601f168201915b5050505050905090565b610983610969611062565b8484846040518060200160405280600081525060016112c1565b505050565b60006109be610995611062565b8484604051806020016040528060008152506040518060200160405280600081525060006112c1565b6001905092915050565b60008173ffffffffffffffffffffffffffffffffffffffff168373ffffffffffffffffffffffffffffffffffffffff161480610ae05750600560008473ffffffffffffffffffffffffffffffffffffffff1673ffffffffffffffffffffffffffffffffffffffff16815260200190815260200160002060009054906101000a900460ff168015610adf5750600760008373ffffffffffffffffffffffffffffffffffffffff1673ffffffffffffffffffffffffffffffffffffffff16815260200190815260200160002060008473ffffffffffffffffffffffffffffffffffffffff1673ffffffffffffffffffffffffffffffffffffffff16815260200190815260200160002060009054906101000a900460ff16155b5b80610b715750600660008373ffffffffffffffffffffffffffffffffffffffff1673ffffffffffffffffffffffffffffffffffffffff16815260200190815260200160002060008473ffffffffffffffffffffffffffffffffffffffff1673ffffffffffffffffffffffffffffffffffffffff16815260200190815260200160002060009054906101000a900460ff165b905092915050565b6000600860008473ffffffffffffffffffffffffffffffffffffffff1673ffffffffffffffffffffffffffffffffffffffff16815260200190815260200160002060008373ffffffffffffffffffffffffffffffffffffffff1673ffffffffffffffffffffffffffffffffffffffff16815260200190815260200160002054905092915050565b6002811115610c44576040517f08c379a0000000000000000000000000000000000000000000000000000000008152600401610c3b90612693565b60405180910390fd5b600a60003373ffffffffffffffffffffffffffffffffffffffff1673ffffffffffffffffffffffffffffffffffffffff16815260200190815260200160002060009054906101000a900460ff1615610cd1576040517f08c379a0000000000000000000000000000000000000000000000000000000008152600401610cc890612713565b60405180910390fd5b610cfb338260405180602001604052806000815250604051806020016040528060008152506113e1565b6001600a60003373ffffffffffffffffffffffffffffffffffffffff1673ffffffffffffffffffffffffffffffffffffffff16815260200190815260200160002060006101000a81548160ff02191690831515021790555050565b610d5e611062565b73ffffffffffffffffffffffffffffffffffffffff168173ffffffffffffffffffffffffffffffffffffffff161415610dcc576040517f08c379a0000000000000000000000000000000000000000000000000000000008152600401610dc3906126f3565b60405180910390fd5b600560008273ffffffffffffffffffffffffffffffffffffffff1673ffffffffffffffffffffffffffffffffffffffff16815260200190815260200160002060009054906101000a900460ff1615610ebf57600160076000610e2c611062565b73ffffffffffffffffffffffffffffffffffffffff1673ffffffffffffffffffffffffffffffffffffffff16815260200190815260200160002060008373ffffffffffffffffffffffffffffffffffffffff1673ffffffffffffffffffffffffffffffffffffffff16815260200190815260200160002060006101000a81548160ff021916908315150217905550610f53565b60066000610ecb611062565b73ffffffffffffffffffffffffffffffffffffffff1673ffffffffffffffffffffffffffffffffffffffff16815260200190815260200160002060008273ffffffffffffffffffffffffffffffffffffffff1673ffffffffffffffffffffffffffffffffffffffff16815260200190815260200160002060006101000a81549060ff02191690555b610f5b611062565b73ffffffffffffffffffffffffffffffffffffffff168173ffffffffffffffffffffffffffffffffffffffff167f50546e66e5f44d728365dc3908c63bc5cfeeab470722c1677e3073a6ac294aa160405160405180910390a350565b610fc8610fc2611062565b856109c8565b611007576040517f08c379a0000000000000000000000000000000000000000000000000000000008152600401610ffe90612793565b60405180910390fd5b611013848484846113f5565b50505050565b61103b611024611062565b8383604051806020016040528060008152506113f5565b5050565b6000808273ffffffffffffffffffffffffffffffffffffffff163b119050919050565b600033905090565b600073ffffffffffffffffffffffffffffffffffffffff168373ffffffffffffffffffffffffffffffffffffffff1614156110da576040517f08c379a00000000000000000000000000000000000000000000000000000000081526004016110d190612633565b60405180910390fd5b600073ffffffffffffffffffffffffffffffffffffffff168273ffffffffffffffffffffffffffffffffffffffff16141561114a576040517f08c379a0000000000000000000000000000000000000000000000000000000008152600401611141906127f3565b60405180910390fd5b80600860008573ffffffffffffffffffffffffffffffffffffffff1673ffffffffffffffffffffffffffffffffffffffff16815260200190815260200160002060008473ffffffffffffffffffffffffffffffffffffffff1673ffffffffffffffffffffffffffffffffffffffff168152602001908152602001600020819055508173ffffffffffffffffffffffffffffffffffffffff168373ffffffffffffffffffffffffffffffffffffffff167f8c5be1e5ebec7d5bd14f71427d1e84f3dd0314c0f7b2291e5b200ac8c7c3b925836040516112289190612813565b60405180910390a3505050565b60006112418484610b79565b90507fffffffffffffffffffffffffffffffffffffffffffffffffffffffffffffffff81146112bb57818110156112ad576040517f08c379a00000000000000000000000000000000000000000000000000000000081526004016112a4906126b3565b60405180910390fd5b6112ba848484840361106a565b5b50505050565b600073ffffffffffffffffffffffffffffffffffffffff168673ffffffffffffffffffffffffffffffffffffffff161415611331576040517f08c379a0000000000000000000000000000000000000000000000000000000008152600401611328906127b3565b60405180910390fd5b600073ffffffffffffffffffffffffffffffffffffffff168573ffffffffffffffffffffffffffffffffffffffff1614156113a1576040517f08c379a000000000000000000000000000000000000000000000000000000000815260040161139890612773565b60405180910390fd5b60006113ab611062565b90506113bb818888888888611648565b6113c98188888888886117be565b6113d8818888888888886119d8565b50505050505050565b6113ef848484846001611bb9565b50505050565b600073ffffffffffffffffffffffffffffffffffffffff168473ffffffffffffffffffffffffffffffffffffffff161415611465576040517f08c379a000000000000000000000000000000000000000000000000000000000815260040161145c90612673565b60405180910390fd5b600061146f611062565b905061148081866000878787611648565b61148d8186600087611d97565b60008060008773ffffffffffffffffffffffffffffffffffffffff1673ffffffffffffffffffffffffffffffffffffffff16815260200190815260200160002054905084811015611513576040517f08c379a000000000000000000000000000000000000000000000000000000000815260040161150a906127d3565b60405180910390fd5b8481036000808873ffffffffffffffffffffffffffffffffffffffff1673ffffffffffffffffffffffffffffffffffffffff16815260200190815260200160002081905550846001600082825461156a91906129ab565b925050819055508573ffffffffffffffffffffffffffffffffffffffff168273ffffffffffffffffffffffffffffffffffffffff167fa78a9be3a7b862d26933ad85fb11d80ef66b8f972d7cbba06621d583943a40988787876040516115d29392919061282e565b60405180910390a3600073ffffffffffffffffffffffffffffffffffffffff168673ffffffffffffffffffffffffffffffffffffffff167fddf252ad1be2c89b69c2b068fc378daa952ba7f163c4a11628f55a4df523b3ef876040516116389190612813565b60405180910390a3505050505050565b6000731820a4b7618bde71dce8cdc73aab6c95905fad2473ffffffffffffffffffffffffffffffffffffffff1663aabbb8ca877f29ddb589b1fb5fc7cf394961c1adf5f8c6454761adf795e67fe149f658abe8956040518363ffffffff1660e01b81526004016116b9929190612590565b60206040518083038186803b1580156116d157600080fd5b505afa1580156116e5573d6000803e3d6000fd5b505050506040513d601f19601f820116820180604052508101906117099190611e79565b9050600073ffffffffffffffffffffffffffffffffffffffff168173ffffffffffffffffffffffffffffffffffffffff16146117b5578073ffffffffffffffffffffffffffffffffffffffff166375ab97828888888888886040518763ffffffff1660e01b815260040161178296959493929190612521565b600060405180830381600087803b15801561179c57600080fd5b505af11580156117b0573d6000803e3d6000fd5b505050505b50505050505050565b6117ca86868686611d97565b60008060008773ffffffffffffffffffffffffffffffffffffffff1673ffffffffffffffffffffffffffffffffffffffff16815260200190815260200160002054905083811015611850576040517f08c379a000000000000000000000000000000000000000000000000000000000815260040161184790612653565b60405180910390fd5b8381036000808873ffffffffffffffffffffffffffffffffffffffff1673ffffffffffffffffffffffffffffffffffffffff16815260200190815260200160002081905550836000808773ffffffffffffffffffffffffffffffffffffffff1673ffffffffffffffffffffffffffffffffffffffff16815260200190815260200160002060008282546118e39190612955565b925050819055508473ffffffffffffffffffffffffffffffffffffffff168673ffffffffffffffffffffffffffffffffffffffff168873ffffffffffffffffffffffffffffffffffffffff167f06b541ddaa720db2b10a4d0cdac39b8d360425fc073085fac19bc826146779878787876040516119629392919061282e565b60405180910390a48473ffffffffffffffffffffffffffffffffffffffff168673ffffffffffffffffffffffffffffffffffffffff167fddf252ad1be2c89b69c2b068fc378daa952ba7f163c4a11628f55a4df523b3ef866040516119c79190612813565b60405180910390a350505050505050565b6000731820a4b7618bde71dce8cdc73aab6c95905fad2473ffffffffffffffffffffffffffffffffffffffff1663aabbb8ca877fb281fc8c12954d22544db45de3159a39272895b169a852b314f9cc762e44c53b6040518363ffffffff1660e01b8152600401611a49929190612590565b60206040518083038186803b158015611a6157600080fd5b505afa158015611a75573d6000803e3d6000fd5b505050506040513d601f19601f82011682018060405250810190611a999190611e79565b9050600073ffffffffffffffffffffffffffffffffffffffff168173ffffffffffffffffffffffffffffffffffffffff1614611b48578073ffffffffffffffffffffffffffffffffffffffff166223de298989898989896040518763ffffffff1660e01b8152600401611b1196959493929190612521565b600060405180830381600087803b158015611b2b57600080fd5b505af1158015611b3f573d6000803e3d6000fd5b50505050611baf565b8115611bae57611b6d8673ffffffffffffffffffffffffffffffffffffffff1661103f565b15611bad576040517f08c379a0000000000000000000000000000000000000000000000000000000008152600401611ba490612753565b60405180910390fd5b5b5b5050505050505050565b600073ffffffffffffffffffffffffffffffffffffffff168573ffffffffffffffffffffffffffffffffffffffff161415611c29576040517f08c379a0000000000000000000000000000000000000000000000000000000008152600401611c2090612733565b60405180910390fd5b6000611c33611062565b9050611c428160008888611d97565b8460016000828254611c549190612955565b92505081905550846000808873ffffffffffffffffffffffffffffffffffffffff1673ffffffffffffffffffffffffffffffffffffffff1681526020019081526020016000206000828254611ca99190612955565b92505081905550611cc081600088888888886119d8565b8573ffffffffffffffffffffffffffffffffffffffff168173ffffffffffffffffffffffffffffffffffffffff167f2fe5be0146f74c5bce36c0b80911af6c7d86ff27e89d5cfa61fc681327954e5d878787604051611d219392919061282e565b60405180910390a38573ffffffffffffffffffffffffffffffffffffffff16600073ffffffffffffffffffffffffffffffffffffffff167fddf252ad1be2c89b69c2b068fc378daa952ba7f163c4a11628f55a4df523b3ef87604051611d879190612813565b60405180910390a3505050505050565b50505050565b6000611db0611dab846128b3565b61288e565b905082815260208101848484011115611dcc57611dcb612bab565b5b611dd7848285612a74565b509392505050565b600081359050611dee81612ffa565b92915050565b600081519050611e0381612ffa565b92915050565b600082601f830112611e1e57611e1d612ba6565b5b8135611e2e848260208601611d9d565b91505092915050565b600081359050611e4681613011565b92915050565b600060208284031215611e6257611e61612bb5565b5b6000611e7084828501611ddf565b91505092915050565b600060208284031215611e8f57611e8e612bb5565b5b6000611e9d84828501611df4565b91505092915050565b60008060408385031215611ebd57611ebc612bb5565b5b6000611ecb85828601611ddf565b9250506020611edc85828601611ddf565b9150509250929050565b600080600060608486031215611eff57611efe612bb5565b5b6000611f0d86828701611ddf565b9350506020611f1e86828701611ddf565b9250506040611f2f86828701611e37565b9150509250925092565b600080600080600060a08688031215611f5557611f54612bb5565b5b6000611f6388828901611ddf565b9550506020611f7488828901611ddf565b9450506040611f8588828901611e37565b935050606086013567ffffffffffffffff811115611fa657611fa5612bb0565b5b611fb288828901611e09565b925050608086013567ffffffffffffffff811115611fd357611fd2612bb0565b5b611fdf88828901611e09565b9150509295509295909350565b6000806040838503121561200357612002612bb5565b5b600061201185828601611ddf565b925050602061202285828601611e37565b9150509250929050565b60008060006060848603121561204557612044612bb5565b5b600061205386828701611ddf565b935050602061206486828701611e37565b925050604084013567ffffffffffffffff81111561208557612084612bb0565b5b61209186828701611e09565b9150509250925092565b600080600080608085870312156120b5576120b4612bb5565b5b60006120c387828801611ddf565b94505060206120d487828801611e37565b935050604085013567ffffffffffffffff8111156120f5576120f4612bb0565b5b61210187828801611e09565b925050606085013567ffffffffffffffff81111561212257612121612bb0565b5b61212e87828801611e09565b91505092959194509250565b6000602082840312156121505761214f612bb5565b5b600061215e84828501611e37565b91505092915050565b6000806040838503121561217e5761217d612bb5565b5b600061218c85828601611e37565b925050602083013567ffffffffffffffff8111156121ad576121ac612bb0565b5b6121b985828601611e09565b9150509250929050565b60006121cf83836121db565b60208301905092915050565b6121e4816129df565b82525050565b6121f3816129df565b82525050565b6000612204826128f4565b61220e8185612922565b9350612219836128e4565b8060005b8381101561224a57815161223188826121c3565b975061223c83612915565b92505060018101905061221d565b5085935050505092915050565b612260816129f1565b82525050565b61226f816129fd565b82525050565b6000612280826128ff565b61228a8185612933565b935061229a818560208601612a83565b6122a381612bba565b840191505092915050565b6122b781612a3e565b82525050565b60006122c88261290a565b6122d28185612944565b93506122e2818560208601612a83565b6122eb81612bba565b840191505092915050565b6000612303602583612944565b915061230e82612bcb565b604082019050919050565b6000612326602783612944565b915061233182612c1a565b604082019050919050565b6000612349602283612944565b915061235482612c69565b604082019050919050565b600061236c600e83612944565b915061237782612cb8565b602082019050919050565b600061238f601e83612944565b915061239a82612ce1565b602082019050919050565b60006123b2602483612944565b91506123bd82612d0a565b604082019050919050565b60006123d5602183612944565b91506123e082612d59565b604082019050919050565b60006123f8600783612944565b915061240382612da8565b602082019050919050565b600061241b602083612944565b915061242682612dd1565b602082019050919050565b600061243e604d83612944565b915061244982612dfa565b606082019050919050565b6000612461602483612944565b915061246c82612e6f565b604082019050919050565b6000612484602c83612944565b915061248f82612ebe565b604082019050919050565b60006124a7602683612944565b91506124b282612f0d565b604082019050919050565b60006124ca602383612944565b91506124d582612f5c565b604082019050919050565b60006124ed602383612944565b91506124f882612fab565b604082019050919050565b61250c81612a27565b82525050565b61251b81612a31565b82525050565b600060c08201905061253660008301896121ea565b61254360208301886121ea565b61255060408301876121ea565b61255d6060830186612503565b818103608083015261256f8185612275565b905081810360a08301526125838184612275565b9050979650505050505050565b60006040820190506125a560008301856121ea565b6125b26020830184612266565b9392505050565b600060208201905081810360008301526125d381846121f9565b905092915050565b60006020820190506125f06000830184612257565b92915050565b600060208201905061260b60008301846122ae565b92915050565b6000602082019050818103600083015261262b81846122bd565b905092915050565b6000602082019050818103600083015261264c816122f6565b9050919050565b6000602082019050818103600083015261266c81612319565b9050919050565b6000602082019050818103600083015261268c8161233c565b9050919050565b600060208201905081810360008301526126ac8161235f565b9050919050565b600060208201905081810360008301526126cc81612382565b9050919050565b600060208201905081810360008301526126ec816123a5565b9050919050565b6000602082019050818103600083015261270c816123c8565b9050919050565b6000602082019050818103600083015261272c816123eb565b9050919050565b6000602082019050818103600083015261274c8161240e565b9050919050565b6000602082019050818103600083015261276c81612431565b9050919050565b6000602082019050818103600083015261278c81612454565b9050919050565b600060208201905081810360008301526127ac81612477565b9050919050565b600060208201905081810360008301526127cc8161249a565b9050919050565b600060208201905081810360008301526127ec816124bd565b9050919050565b6000602082019050818103600083015261280c816124e0565b9050919050565b60006020820190506128286000830184612503565b92915050565b60006060820190506128436000830186612503565b81810360208301526128558185612275565b905081810360408301526128698184612275565b9050949350505050565b60006020820190506128886000830184612512565b92915050565b60006128986128a9565b90506128a48282612ae8565b919050565b6000604051905090565b600067ffffffffffffffff8211156128ce576128cd612b77565b5b6128d782612bba565b9050602081019050919050565b6000819050602082019050919050565b600081519050919050565b600081519050919050565b600081519050919050565b6000602082019050919050565b600082825260208201905092915050565b600082825260208201905092915050565b600082825260208201905092915050565b600061296082612a27565b915061296b83612a27565b9250827fffffffffffffffffffffffffffffffffffffffffffffffffffffffffffffffff038211156129a05761299f612b19565b5b828201905092915050565b60006129b682612a27565b91506129c183612a27565b9250828210156129d4576129d3612b19565b5b828203905092915050565b60006129ea82612a07565b9050919050565b60008115159050919050565b6000819050919050565b600073ffffffffffffffffffffffffffffffffffffffff82169050919050565b6000819050919050565b600060ff82169050919050565b6000612a4982612a50565b9050919050565b6000612a5b82612a62565b9050919050565b6000612a6d82612a07565b9050919050565b82818337600083830152505050565b60005b83811015612aa1578082015181840152602081019050612a86565b83811115612ab0576000848401525b50505050565b60006002820490506001821680612ace57607f821691505b60208210811415612ae257612ae1612b48565b5b50919050565b612af182612bba565b810181811067ffffffffffffffff82111715612b1057612b0f612b77565b5b80604052505050565b7f4e487b7100000000000000000000000000000000000000000000000000000000600052601160045260246000fd5b7f4e487b7100000000000000000000000000000000000000000000000000000000600052602260045260246000fd5b7f4e487b7100000000000000000000000000000000000000000000000000000000600052604160045260246000fd5b600080fd5b600080fd5b600080fd5b600080fd5b6000601f19601f8301169050919050565b7f4552433737373a20617070726f76652066726f6d20746865207a65726f20616460008201527f6472657373000000000000000000000000000000000000000000000000000000602082015250565b7f4552433737373a207472616e7366657220616d6f756e7420657863656564732060008201527f62616c616e636500000000000000000000000000000000000000000000000000602082015250565b7f4552433737373a206275726e2066726f6d20746865207a65726f20616464726560008201527f7373000000000000000000000000000000000000000000000000000000000000602082015250565b7f696e76616c696420616d6f756e74000000000000000000000000000000000000600082015250565b7f4552433737373a20696e73756666696369656e7420616c6c6f77616e63650000600082015250565b7f4552433737373a20617574686f72697a696e672073656c66206173206f70657260008201527f61746f7200000000000000000000000000000000000000000000000000000000602082015250565b7f4552433737373a207265766f6b696e672073656c66206173206f70657261746f60008201527f7200000000000000000000000000000000000000000000000000000000000000602082015250565b7f6c6f636b65642100000000000000000000000000000000000000000000000000600082015250565b7f4552433737373a206d696e7420746f20746865207a65726f2061646472657373600082015250565b7f4552433737373a20746f6b656e20726563697069656e7420636f6e747261637460008201527f20686173206e6f20696d706c656d656e74657220666f7220455243373737546f60208201527f6b656e73526563697069656e7400000000000000000000000000000000000000604082015250565b7f4552433737373a207472616e7366657220746f20746865207a65726f2061646460008201527f7265737300000000000000000000000000000000000000000000000000000000602082015250565b7f4552433737373a2063616c6c6572206973206e6f7420616e206f70657261746f60008201527f7220666f7220686f6c6465720000000000000000000000000000000000000000602082015250565b7f4552433737373a207472616e736665722066726f6d20746865207a65726f206160008201527f6464726573730000000000000000000000000000000000000000000000000000602082015250565b7f4552433737373a206275726e20616d6f756e7420657863656564732062616c6160008201527f6e63650000000000000000000000000000000000000000000000000000000000602082015250565b7f4552433737373a20617070726f766520746f20746865207a65726f206164647260008201527f6573730000000000000000000000000000000000000000000000000000000000602082015250565b613003816129df565b811461300e57600080fd5b50565b61301a81612a27565b811461302557600080fd5b5056fea2646970667358221220559dff545a81b8b8b6544bc2b9e04ad5b25e44427499fcbf0d90bc543d596f2b64736f6c63430008070033",
  "immutableReferences": {},
  "source": "pragma solidity 0.8.7;\n\nimport \"@openzeppelin/contracts/token/ERC777/ERC777.sol\";\nimport \"@openzeppelin/contracts/token/ERC777/IERC777Sender.sol\";\nimport \"@openzeppelin/contracts/token/ERC777/IERC777Recipient.sol\";\nimport \"@openzeppelin/contracts/interfaces/IERC1820Registry.sol\";\n\ncontract ERC777Reentrancy is ERC777 {\n    bytes32 constant private TOKENS_SENDER_INTERFACE_HASH =\n        0x29ddb589b1fb5fc7cf394961c1adf5f8c6454761adf795e67fe149f658abe895;\n    IERC1820Registry public registry\n        = IERC1820Registry(0x1820a4B7618BdE71Dce8cdc73aAB6C95905faD24);\n    mapping (address => bool) locked;\n    constructor() public payable ERC777(\"ERC777Reentrancy\", \"ERE\", new address[](0)) {\n\t   _mint(msg.sender,msg.value,\"\",\"\",false);\n    }\n    \n    function vuln(uint256 amount) external {\n        require(amount <= 2,\"invalid amount\");\n        require(!locked[msg.sender],\"locked!\");\n\t    _mint(msg.sender,amount,\"\",\"\");\n        locked[msg.sender]=true;\n    }\n}\n",
  "sourcePath": "/home/neo/blockfuck/git/all_reentrancy_in_one_repo/erc777_reentrancy/contracts/vuln_contract.sol",
  "compiler": {
    "name": "solc",
    "version": "0.8.7+commit.e28d00a7.Emscripten.clang"
  },
  "schemaVersion": "3.4.10",
  "updatedAt": "2022-11-07T12:23:26.844Z",
  "networkType": "ethereum",
  "devdoc": {
    "kind": "dev",
    "methods": {
      "allowance(address,address)": {
        "details": "See {IERC20-allowance}. Note that operator and allowance concepts are orthogonal: operators may not have allowance, and accounts with allowance may not be operators themselves."
      },
      "approve(address,uint256)": {
        "details": "See {IERC20-approve}. NOTE: If `value` is the maximum `uint256`, the allowance is not updated on `transferFrom`. This is semantically equivalent to an infinite approval. Note that accounts cannot have allowance issued by their operators."
      },
      "authorizeOperator(address)": {
        "details": "See {IERC777-authorizeOperator}."
      },
      "balanceOf(address)": {
        "details": "Returns the amount of tokens owned by an account (`tokenHolder`)."
      },
      "burn(uint256,bytes)": {
        "details": "See {IERC777-burn}. Also emits a {IERC20-Transfer} event for ERC20 compatibility."
      },
      "decimals()": {
        "details": "See {ERC20-decimals}. Always returns 18, as per the [ERC777 EIP](https://eips.ethereum.org/EIPS/eip-777#backward-compatibility)."
      },
      "defaultOperators()": {
        "details": "See {IERC777-defaultOperators}."
      },
      "granularity()": {
        "details": "See {IERC777-granularity}. This implementation always returns `1`."
      },
      "isOperatorFor(address,address)": {
        "details": "See {IERC777-isOperatorFor}."
      },
      "name()": {
        "details": "See {IERC777-name}."
      },
      "operatorBurn(address,uint256,bytes,bytes)": {
        "details": "See {IERC777-operatorBurn}. Emits {Burned} and {IERC20-Transfer} events."
      },
      "operatorSend(address,address,uint256,bytes,bytes)": {
        "details": "See {IERC777-operatorSend}. Emits {Sent} and {IERC20-Transfer} events."
      },
      "revokeOperator(address)": {
        "details": "See {IERC777-revokeOperator}."
      },
      "send(address,uint256,bytes)": {
        "details": "See {IERC777-send}. Also emits a {IERC20-Transfer} event for ERC20 compatibility."
      },
      "symbol()": {
        "details": "See {IERC777-symbol}."
      },
      "totalSupply()": {
        "details": "See {IERC777-totalSupply}."
      },
      "transfer(address,uint256)": {
        "details": "See {IERC20-transfer}. Unlike `send`, `recipient` is _not_ required to implement the {IERC777Recipient} interface if it is a contract. Also emits a {Sent} event."
      },
      "transferFrom(address,address,uint256)": {
        "details": "See {IERC20-transferFrom}. NOTE: Does not update the allowance if the current allowance is the maximum `uint256`. Note that operator and allowance concepts are orthogonal: operators cannot call `transferFrom` (unless they have allowance), and accounts with allowance cannot call `operatorSend` (unless they are operators). Emits {Sent}, {IERC20-Transfer} and {IERC20-Approval} events."
      }
    },
    "version": 1
  },
  "userdoc": {
    "kind": "user",
    "methods": {},
    "version": 1
  }
}