{
  "contractName": "ERC677",
  "abi": [
    {
      "inputs": [
        {
          "internalType": "string",
          "name": "_name",
          "type": "string"
        },
        {
          "internalType": "string",
          "name": "_symbol",
          "type": "string"
        }
      ],
      "stateMutability": "nonpayable",
      "type": "constructor"
    },
    {
      "anonymous": false,
      "inputs": [
        {
          "indexed": true,
          "internalType": "address",
          "name": "owner",
          "type": "address"
        },
        {
          "indexed": true,
          "internalType": "address",
          "name": "spender",
          "type": "address"
        },
        {
          "indexed": false,
          "internalType": "uint256",
          "name": "value",
          "type": "uint256"
        }
      ],
      "name": "Approval",
      "type": "event"
    },
    {
      "anonymous": false,
      "inputs": [
        {
          "indexed": true,
          "internalType": "address",
          "name": "from",
          "type": "address"
        },
        {
          "indexed": true,
          "internalType": "address",
          "name": "to",
          "type": "address"
        },
        {
          "indexed": false,
          "internalType": "uint256",
          "name": "value",
          "type": "uint256"
        },
        {
          "indexed": false,
          "internalType": "bytes",
          "name": "data",
          "type": "bytes"
        }
      ],
      "name": "Transfer",
      "type": "event"
    },
    {
      "anonymous": false,
      "inputs": [
        {
          "indexed": true,
          "internalType": "address",
          "name": "from",
          "type": "address"
        },
        {
          "indexed": true,
          "internalType": "address",
          "name": "to",
          "type": "address"
        },
        {
          "indexed": false,
          "internalType": "uint256",
          "name": "value",
          "type": "uint256"
        }
      ],
      "name": "Transfer",
      "type": "event"
    },
    {
      "inputs": [
        {
          "internalType": "address",
          "name": "owner",
          "type": "address"
        },
        {
          "internalType": "address",
          "name": "spender",
          "type": "address"
        }
      ],
      "name": "allowance",
      "outputs": [
        {
          "internalType": "uint256",
          "name": "",
          "type": "uint256"
        }
      ],
      "stateMutability": "view",
      "type": "function"
    },
    {
      "inputs": [
        {
          "internalType": "address",
          "name": "spender",
          "type": "address"
        },
        {
          "internalType": "uint256",
          "name": "amount",
          "type": "uint256"
        }
      ],
      "name": "approve",
      "outputs": [
        {
          "internalType": "bool",
          "name": "",
          "type": "bool"
        }
      ],
      "stateMutability": "nonpayable",
      "type": "function"
    },
    {
      "inputs": [
        {
          "internalType": "address",
          "name": "account",
          "type": "address"
        }
      ],
      "name": "balanceOf",
      "outputs": [
        {
          "internalType": "uint256",
          "name": "",
          "type": "uint256"
        }
      ],
      "stateMutability": "view",
      "type": "function"
    },
    {
      "inputs": [],
      "name": "decimals",
      "outputs": [
        {
          "internalType": "uint8",
          "name": "",
          "type": "uint8"
        }
      ],
      "stateMutability": "view",
      "type": "function"
    },
    {
      "inputs": [
        {
          "internalType": "address",
          "name": "spender",
          "type": "address"
        },
        {
          "internalType": "uint256",
          "name": "subtractedValue",
          "type": "uint256"
        }
      ],
      "name": "decreaseAllowance",
      "outputs": [
        {
          "internalType": "bool",
          "name": "",
          "type": "bool"
        }
      ],
      "stateMutability": "nonpayable",
      "type": "function"
    },
    {
      "inputs": [
        {
          "internalType": "address",
          "name": "spender",
          "type": "address"
        },
        {
          "internalType": "uint256",
          "name": "addedValue",
          "type": "uint256"
        }
      ],
      "name": "increaseAllowance",
      "outputs": [
        {
          "internalType": "bool",
          "name": "",
          "type": "bool"
        }
      ],
      "stateMutability": "nonpayable",
      "type": "function"
    },
    {
      "inputs": [],
      "name": "name",
      "outputs": [
        {
          "internalType": "string",
          "name": "",
          "type": "string"
        }
      ],
      "stateMutability": "view",
      "type": "function"
    },
    {
      "inputs": [],
      "name": "symbol",
      "outputs": [
        {
          "internalType": "string",
          "name": "",
          "type": "string"
        }
      ],
      "stateMutability": "view",
      "type": "function"
    },
    {
      "inputs": [],
      "name": "totalSupply",
      "outputs": [
        {
          "internalType": "uint256",
          "name": "",
          "type": "uint256"
        }
      ],
      "stateMutability": "view",
      "type": "function"
    },
    {
      "inputs": [
        {
          "internalType": "address",
          "name": "to",
          "type": "address"
        },
        {
          "internalType": "uint256",
          "name": "amount",
          "type": "uint256"
        }
      ],
      "name": "transfer",
      "outputs": [
        {
          "internalType": "bool",
          "name": "",
          "type": "bool"
        }
      ],
      "stateMutability": "nonpayable",
      "type": "function"
    },
    {
      "inputs": [
        {
          "internalType": "address",
          "name": "from",
          "type": "address"
        },
        {
          "internalType": "address",
          "name": "to",
          "type": "address"
        },
        {
          "internalType": "uint256",
          "name": "amount",
          "type": "uint256"
        }
      ],
      "name": "transferFrom",
      "outputs": [
        {
          "internalType": "bool",
          "name": "",
          "type": "bool"
        }
      ],
      "stateMutability": "nonpayable",
      "type": "function"
    },
    {
      "inputs": [
        {
          "internalType": "address",
          "name": "to",
          "type": "address"
        },
        {
          "internalType": "uint256",
          "name": "value",
          "type": "uint256"
        },
        {
          "internalType": "bytes",
          "name": "data",
          "type": "bytes"
        }
      ],
      "name": "transferAndCall",
      "outputs": [
        {
          "internalType": "bool",
          "name": "success",
          "type": "bool"
        }
      ],
      "stateMutability": "nonpayable",
      "type": "function"
    }
  ],
  "bytecode": "0x60806040523480156200001157600080fd5b506040516200181b3803806200181b8339818101604052810190620000379190620001a3565b818181600390805190602001906200005192919062000075565b5080600490805190602001906200006a92919062000075565b5050505050620003ac565b8280546200008390620002bd565b90600052602060002090601f016020900481019282620000a75760008555620000f3565b82601f10620000c257805160ff1916838001178555620000f3565b82800160010185558215620000f3579182015b82811115620000f2578251825591602001919060010190620000d5565b5b50905062000102919062000106565b5090565b5b808211156200012157600081600090555060010162000107565b5090565b60006200013c620001368462000251565b62000228565b9050828152602081018484840111156200015b576200015a6200038c565b5b6200016884828562000287565b509392505050565b600082601f83011262000188576200018762000387565b5b81516200019a84826020860162000125565b91505092915050565b60008060408385031215620001bd57620001bc62000396565b5b600083015167ffffffffffffffff811115620001de57620001dd62000391565b5b620001ec8582860162000170565b925050602083015167ffffffffffffffff81111562000210576200020f62000391565b5b6200021e8582860162000170565b9150509250929050565b60006200023462000247565b9050620002428282620002f3565b919050565b6000604051905090565b600067ffffffffffffffff8211156200026f576200026e62000358565b5b6200027a826200039b565b9050602081019050919050565b60005b83811015620002a75780820151818401526020810190506200028a565b83811115620002b7576000848401525b50505050565b60006002820490506001821680620002d657607f821691505b60208210811415620002ed57620002ec62000329565b5b50919050565b620002fe826200039b565b810181811067ffffffffffffffff8211171562000320576200031f62000358565b5b80604052505050565b7f4e487b7100000000000000000000000000000000000000000000000000000000600052602260045260246000fd5b7f4e487b7100000000000000000000000000000000000000000000000000000000600052604160045260246000fd5b600080fd5b600080fd5b600080fd5b600080fd5b6000601f19601f8301169050919050565b61145f80620003bc6000396000f3fe608060405234801561001057600080fd5b50600436106100b45760003560e01c80634000aea0116100715780634000aea0146101a357806370a08231146101d357806395d89b4114610203578063a457c2d714610221578063a9059cbb14610251578063dd62ed3e14610281576100b4565b806306fdde03146100b9578063095ea7b3146100d757806318160ddd1461010757806323b872dd14610125578063313ce567146101555780633950935114610173575b600080fd5b6100c16102b1565b6040516100ce9190610e4c565b60405180910390f35b6100f160048036038101906100ec9190610c27565b610343565b6040516100fe9190610e31565b60405180910390f35b61010f610366565b60405161011c9190610f4e565b60405180910390f35b61013f600480360381019061013a9190610bd4565b610370565b60405161014c9190610e31565b60405180910390f35b61015d61039f565b60405161016a9190610f69565b60405180910390f35b61018d60048036038101906101889190610c27565b6103a8565b60405161019a9190610e31565b60405180910390f35b6101bd60048036038101906101b89190610c67565b6103df565b6040516101ca9190610e31565b60405180910390f35b6101ed60048036038101906101e89190610b67565b6103e8565b6040516101fa9190610f4e565b60405180910390f35b61020b610430565b6040516102189190610e4c565b60405180910390f35b61023b60048036038101906102369190610c27565b6104c2565b6040516102489190610e31565b60405180910390f35b61026b60048036038101906102669190610c27565b610539565b6040516102789190610e31565b60405180910390f35b61029b60048036038101906102969190610b94565b61055c565b6040516102a89190610f4e565b60405180910390f35b6060600380546102c0906110e3565b80601f01602080910402602001604051908101604052809291908181526020018280546102ec906110e3565b80156103395780601f1061030e57610100808354040283529160200191610339565b820191906000526020600020905b81548152906001019060200180831161031c57829003601f168201915b5050505050905090565b60008061034e6105e3565b905061035b8185856105eb565b600191505092915050565b6000600254905090565b60008061037b6105e3565b90506103888582856107b6565b610393858585610842565b60019150509392505050565b60006012905090565b6000806103b36105e3565b90506103d48185856103c5858961055c565b6103cf9190610ff6565b6105eb565b600191505092915050565b60009392505050565b60008060008373ffffffffffffffffffffffffffffffffffffffff1673ffffffffffffffffffffffffffffffffffffffff168152602001908152602001600020549050919050565b60606004805461043f906110e3565b80601f016020809104026020016040519081016040528092919081815260200182805461046b906110e3565b80156104b85780601f1061048d576101008083540402835291602001916104b8565b820191906000526020600020905b81548152906001019060200180831161049b57829003601f168201915b5050505050905090565b6000806104cd6105e3565b905060006104db828661055c565b905083811015610520576040517f08c379a000000000000000000000000000000000000000000000000000000000815260040161051790610f2e565b60405180910390fd5b61052d82868684036105eb565b60019250505092915050565b6000806105446105e3565b9050610551818585610842565b600191505092915050565b6000600160008473ffffffffffffffffffffffffffffffffffffffff1673ffffffffffffffffffffffffffffffffffffffff16815260200190815260200160002060008373ffffffffffffffffffffffffffffffffffffffff1673ffffffffffffffffffffffffffffffffffffffff16815260200190815260200160002054905092915050565b600033905090565b600073ffffffffffffffffffffffffffffffffffffffff168373ffffffffffffffffffffffffffffffffffffffff16141561065b576040517f08c379a000000000000000000000000000000000000000000000000000000000815260040161065290610f0e565b60405180910390fd5b600073ffffffffffffffffffffffffffffffffffffffff168273ffffffffffffffffffffffffffffffffffffffff1614156106cb576040517f08c379a00000000000000000000000000000000000000000000000000000000081526004016106c290610e8e565b60405180910390fd5b80600160008573ffffffffffffffffffffffffffffffffffffffff1673ffffffffffffffffffffffffffffffffffffffff16815260200190815260200160002060008473ffffffffffffffffffffffffffffffffffffffff1673ffffffffffffffffffffffffffffffffffffffff168152602001908152602001600020819055508173ffffffffffffffffffffffffffffffffffffffff168373ffffffffffffffffffffffffffffffffffffffff167f8c5be1e5ebec7d5bd14f71427d1e84f3dd0314c0f7b2291e5b200ac8c7c3b925836040516107a99190610f4e565b60405180910390a3505050565b60006107c2848461055c565b90507fffffffffffffffffffffffffffffffffffffffffffffffffffffffffffffffff811461083c578181101561082e576040517f08c379a000000000000000000000000000000000000000000000000000000000815260040161082590610eae565b60405180910390fd5b61083b84848484036105eb565b5b50505050565b600073ffffffffffffffffffffffffffffffffffffffff168373ffffffffffffffffffffffffffffffffffffffff1614156108b2576040517f08c379a00000000000000000000000000000000000000000000000000000000081526004016108a990610eee565b60405180910390fd5b600073ffffffffffffffffffffffffffffffffffffffff168273ffffffffffffffffffffffffffffffffffffffff161415610922576040517f08c379a000000000000000000000000000000000000000000000000000000000815260040161091990610e6e565b60405180910390fd5b61092d838383610ac3565b60008060008573ffffffffffffffffffffffffffffffffffffffff1673ffffffffffffffffffffffffffffffffffffffff168152602001908152602001600020549050818110156109b3576040517f08c379a00000000000000000000000000000000000000000000000000000000081526004016109aa90610ece565b60405180910390fd5b8181036000808673ffffffffffffffffffffffffffffffffffffffff1673ffffffffffffffffffffffffffffffffffffffff16815260200190815260200160002081905550816000808573ffffffffffffffffffffffffffffffffffffffff1673ffffffffffffffffffffffffffffffffffffffff1681526020019081526020016000206000828254610a469190610ff6565b925050819055508273ffffffffffffffffffffffffffffffffffffffff168473ffffffffffffffffffffffffffffffffffffffff167fddf252ad1be2c89b69c2b068fc378daa952ba7f163c4a11628f55a4df523b3ef84604051610aaa9190610f4e565b60405180910390a3610abd848484610ac8565b50505050565b505050565b505050565b6000610ae0610adb84610fa9565b610f84565b905082815260208101848484011115610afc57610afb6111d8565b5b610b078482856110a1565b509392505050565b600081359050610b1e816113fb565b92915050565b600082601f830112610b3957610b386111d3565b5b8135610b49848260208601610acd565b91505092915050565b600081359050610b6181611412565b92915050565b600060208284031215610b7d57610b7c6111e2565b5b6000610b8b84828501610b0f565b91505092915050565b60008060408385031215610bab57610baa6111e2565b5b6000610bb985828601610b0f565b9250506020610bca85828601610b0f565b9150509250929050565b600080600060608486031215610bed57610bec6111e2565b5b6000610bfb86828701610b0f565b9350506020610c0c86828701610b0f565b9250506040610c1d86828701610b52565b9150509250925092565b60008060408385031215610c3e57610c3d6111e2565b5b6000610c4c85828601610b0f565b9250506020610c5d85828601610b52565b9150509250929050565b600080600060608486031215610c8057610c7f6111e2565b5b6000610c8e86828701610b0f565b9350506020610c9f86828701610b52565b925050604084013567ffffffffffffffff811115610cc057610cbf6111dd565b5b610ccc86828701610b24565b9150509250925092565b610cdf8161105e565b82525050565b6000610cf082610fda565b610cfa8185610fe5565b9350610d0a8185602086016110b0565b610d13816111e7565b840191505092915050565b6000610d2b602383610fe5565b9150610d36826111f8565b604082019050919050565b6000610d4e602283610fe5565b9150610d5982611247565b604082019050919050565b6000610d71601d83610fe5565b9150610d7c82611296565b602082019050919050565b6000610d94602683610fe5565b9150610d9f826112bf565b604082019050919050565b6000610db7602583610fe5565b9150610dc28261130e565b604082019050919050565b6000610dda602483610fe5565b9150610de58261135d565b604082019050919050565b6000610dfd602583610fe5565b9150610e08826113ac565b604082019050919050565b610e1c8161108a565b82525050565b610e2b81611094565b82525050565b6000602082019050610e466000830184610cd6565b92915050565b60006020820190508181036000830152610e668184610ce5565b905092915050565b60006020820190508181036000830152610e8781610d1e565b9050919050565b60006020820190508181036000830152610ea781610d41565b9050919050565b60006020820190508181036000830152610ec781610d64565b9050919050565b60006020820190508181036000830152610ee781610d87565b9050919050565b60006020820190508181036000830152610f0781610daa565b9050919050565b60006020820190508181036000830152610f2781610dcd565b9050919050565b60006020820190508181036000830152610f4781610df0565b9050919050565b6000602082019050610f636000830184610e13565b92915050565b6000602082019050610f7e6000830184610e22565b92915050565b6000610f8e610f9f565b9050610f9a8282611115565b919050565b6000604051905090565b600067ffffffffffffffff821115610fc457610fc36111a4565b5b610fcd826111e7565b9050602081019050919050565b600081519050919050565b600082825260208201905092915050565b60006110018261108a565b915061100c8361108a565b9250827fffffffffffffffffffffffffffffffffffffffffffffffffffffffffffffffff0382111561104157611040611146565b5b828201905092915050565b60006110578261106a565b9050919050565b60008115159050919050565b600073ffffffffffffffffffffffffffffffffffffffff82169050919050565b6000819050919050565b600060ff82169050919050565b82818337600083830152505050565b60005b838110156110ce5780820151818401526020810190506110b3565b838111156110dd576000848401525b50505050565b600060028204905060018216806110fb57607f821691505b6020821081141561110f5761110e611175565b5b50919050565b61111e826111e7565b810181811067ffffffffffffffff8211171561113d5761113c6111a4565b5b80604052505050565b7f4e487b7100000000000000000000000000000000000000000000000000000000600052601160045260246000fd5b7f4e487b7100000000000000000000000000000000000000000000000000000000600052602260045260246000fd5b7f4e487b7100000000000000000000000000000000000000000000000000000000600052604160045260246000fd5b600080fd5b600080fd5b600080fd5b600080fd5b6000601f19601f8301169050919050565b7f45524332303a207472616e7366657220746f20746865207a65726f206164647260008201527f6573730000000000000000000000000000000000000000000000000000000000602082015250565b7f45524332303a20617070726f766520746f20746865207a65726f20616464726560008201527f7373000000000000000000000000000000000000000000000000000000000000602082015250565b7f45524332303a20696e73756666696369656e7420616c6c6f77616e6365000000600082015250565b7f45524332303a207472616e7366657220616d6f756e742065786365656473206260008201527f616c616e63650000000000000000000000000000000000000000000000000000602082015250565b7f45524332303a207472616e736665722066726f6d20746865207a65726f20616460008201527f6472657373000000000000000000000000000000000000000000000000000000602082015250565b7f45524332303a20617070726f76652066726f6d20746865207a65726f2061646460008201527f7265737300000000000000000000000000000000000000000000000000000000602082015250565b7f45524332303a2064656372656173656420616c6c6f77616e63652062656c6f7760008201527f207a65726f000000000000000000000000000000000000000000000000000000602082015250565b6114048161104c565b811461140f57600080fd5b50565b61141b8161108a565b811461142657600080fd5b5056fea2646970667358221220e48c4b08eed72b0878960ec865dd3b8dcdfa745ea210c431d1213829eb728cba64736f6c63430008070033",
  "immutableReferences": {},
  "source": "pragma solidity 0.8.7;\n\nimport \"@openzeppelin/contracts/token/ERC20/ERC20.sol\";\n\ncontract ERC677 is ERC20 {\n  constructor(string memory _name,string memory _symbol) public ERC20(_name,_symbol) {}\n  function transferAndCall(address to, uint value, bytes memory data) public virtual returns (bool success) {}\n  event Transfer(address indexed from, address indexed to, uint value, bytes data);\n}\n",
  "sourcePath": "/home/neo/blockfuck/git/all_reentrancy_in_one_repo/erc677_reentrancy/contracts/ERC677/ERC677.sol",
  "compiler": {
    "name": "solc",
    "version": "0.8.7+commit.e28d00a7.Emscripten.clang"
  },
  "schemaVersion": "3.2.2-next.0",
  "updatedAt": "2022-11-04T12:09:20.018Z",
  "devdoc": {
    "kind": "dev",
    "methods": {
      "allowance(address,address)": {
        "details": "See {IERC20-allowance}."
      },
      "approve(address,uint256)": {
        "details": "See {IERC20-approve}. NOTE: If `amount` is the maximum `uint256`, the allowance is not updated on `transferFrom`. This is semantically equivalent to an infinite approval. Requirements: - `spender` cannot be the zero address."
      },
      "balanceOf(address)": {
        "details": "See {IERC20-balanceOf}."
      },
      "decimals()": {
        "details": "Returns the number of decimals used to get its user representation. For example, if `decimals` equals `2`, a balance of `505` tokens should be displayed to a user as `5.05` (`505 / 10 ** 2`). Tokens usually opt for a value of 18, imitating the relationship between Ether and Wei. This is the value {ERC20} uses, unless this function is overridden; NOTE: This information is only used for _display_ purposes: it in no way affects any of the arithmetic of the contract, including {IERC20-balanceOf} and {IERC20-transfer}."
      },
      "decreaseAllowance(address,uint256)": {
        "details": "Atomically decreases the allowance granted to `spender` by the caller. This is an alternative to {approve} that can be used as a mitigation for problems described in {IERC20-approve}. Emits an {Approval} event indicating the updated allowance. Requirements: - `spender` cannot be the zero address. - `spender` must have allowance for the caller of at least `subtractedValue`."
      },
      "increaseAllowance(address,uint256)": {
        "details": "Atomically increases the allowance granted to `spender` by the caller. This is an alternative to {approve} that can be used as a mitigation for problems described in {IERC20-approve}. Emits an {Approval} event indicating the updated allowance. Requirements: - `spender` cannot be the zero address."
      },
      "name()": {
        "details": "Returns the name of the token."
      },
      "symbol()": {
        "details": "Returns the symbol of the token, usually a shorter version of the name."
      },
      "totalSupply()": {
        "details": "See {IERC20-totalSupply}."
      },
      "transfer(address,uint256)": {
        "details": "See {IERC20-transfer}. Requirements: - `to` cannot be the zero address. - the caller must have a balance of at least `amount`."
      },
      "transferFrom(address,address,uint256)": {
        "details": "See {IERC20-transferFrom}. Emits an {Approval} event indicating the updated allowance. This is not required by the EIP. See the note at the beginning of {ERC20}. NOTE: Does not update the allowance if the current allowance is the maximum `uint256`. Requirements: - `from` and `to` cannot be the zero address. - `from` must have a balance of at least `amount`. - the caller must have allowance for ``from``'s tokens of at least `amount`."
      }
    },
    "version": 1
  },
  "userdoc": {
    "kind": "user",
    "methods": {},
    "version": 1
  }
}