{
  "contractName": "ERC677Reentrancy",
  "abi": [
    {
      "inputs": [],
      "stateMutability": "payable",
      "type": "constructor",
      "payable": true
    },
    {
      "anonymous": false,
      "inputs": [
        {
          "indexed": true,
          "internalType": "address",
          "name": "owner",
          "type": "address"
        },
        {
          "indexed": true,
          "internalType": "address",
          "name": "spender",
          "type": "address"
        },
        {
          "indexed": false,
          "internalType": "uint256",
          "name": "value",
          "type": "uint256"
        }
      ],
      "name": "Approval",
      "type": "event"
    },
    {
      "anonymous": false,
      "inputs": [
        {
          "indexed": true,
          "internalType": "address",
          "name": "from",
          "type": "address"
        },
        {
          "indexed": true,
          "internalType": "address",
          "name": "to",
          "type": "address"
        },
        {
          "indexed": false,
          "internalType": "uint256",
          "name": "value",
          "type": "uint256"
        },
        {
          "indexed": false,
          "internalType": "bytes",
          "name": "data",
          "type": "bytes"
        }
      ],
      "name": "Transfer",
      "type": "event"
    },
    {
      "anonymous": false,
      "inputs": [
        {
          "indexed": true,
          "internalType": "address",
          "name": "from",
          "type": "address"
        },
        {
          "indexed": true,
          "internalType": "address",
          "name": "to",
          "type": "address"
        },
        {
          "indexed": false,
          "internalType": "uint256",
          "name": "value",
          "type": "uint256"
        }
      ],
      "name": "Transfer",
      "type": "event"
    },
    {
      "inputs": [
        {
          "internalType": "address",
          "name": "owner",
          "type": "address"
        },
        {
          "internalType": "address",
          "name": "spender",
          "type": "address"
        }
      ],
      "name": "allowance",
      "outputs": [
        {
          "internalType": "uint256",
          "name": "",
          "type": "uint256"
        }
      ],
      "stateMutability": "view",
      "type": "function",
      "constant": true
    },
    {
      "inputs": [
        {
          "internalType": "address",
          "name": "spender",
          "type": "address"
        },
        {
          "internalType": "uint256",
          "name": "amount",
          "type": "uint256"
        }
      ],
      "name": "approve",
      "outputs": [
        {
          "internalType": "bool",
          "name": "",
          "type": "bool"
        }
      ],
      "stateMutability": "nonpayable",
      "type": "function"
    },
    {
      "inputs": [
        {
          "internalType": "address",
          "name": "account",
          "type": "address"
        }
      ],
      "name": "balanceOf",
      "outputs": [
        {
          "internalType": "uint256",
          "name": "",
          "type": "uint256"
        }
      ],
      "stateMutability": "view",
      "type": "function",
      "constant": true
    },
    {
      "inputs": [],
      "name": "decimals",
      "outputs": [
        {
          "internalType": "uint8",
          "name": "",
          "type": "uint8"
        }
      ],
      "stateMutability": "view",
      "type": "function",
      "constant": true
    },
    {
      "inputs": [
        {
          "internalType": "address",
          "name": "spender",
          "type": "address"
        },
        {
          "internalType": "uint256",
          "name": "subtractedValue",
          "type": "uint256"
        }
      ],
      "name": "decreaseAllowance",
      "outputs": [
        {
          "internalType": "bool",
          "name": "",
          "type": "bool"
        }
      ],
      "stateMutability": "nonpayable",
      "type": "function"
    },
    {
      "inputs": [
        {
          "internalType": "address",
          "name": "spender",
          "type": "address"
        },
        {
          "internalType": "uint256",
          "name": "addedValue",
          "type": "uint256"
        }
      ],
      "name": "increaseAllowance",
      "outputs": [
        {
          "internalType": "bool",
          "name": "",
          "type": "bool"
        }
      ],
      "stateMutability": "nonpayable",
      "type": "function"
    },
    {
      "inputs": [
        {
          "internalType": "address",
          "name": "",
          "type": "address"
        }
      ],
      "name": "lock_times",
      "outputs": [
        {
          "internalType": "uint256",
          "name": "",
          "type": "uint256"
        }
      ],
      "stateMutability": "view",
      "type": "function",
      "constant": true
    },
    {
      "inputs": [],
      "name": "name",
      "outputs": [
        {
          "internalType": "string",
          "name": "",
          "type": "string"
        }
      ],
      "stateMutability": "view",
      "type": "function",
      "constant": true
    },
    {
      "inputs": [],
      "name": "symbol",
      "outputs": [
        {
          "internalType": "string",
          "name": "",
          "type": "string"
        }
      ],
      "stateMutability": "view",
      "type": "function",
      "constant": true
    },
    {
      "inputs": [],
      "name": "totalSupply",
      "outputs": [
        {
          "internalType": "uint256",
          "name": "",
          "type": "uint256"
        }
      ],
      "stateMutability": "view",
      "type": "function",
      "constant": true
    },
    {
      "inputs": [
        {
          "internalType": "address",
          "name": "to",
          "type": "address"
        },
        {
          "internalType": "uint256",
          "name": "amount",
          "type": "uint256"
        }
      ],
      "name": "transfer",
      "outputs": [
        {
          "internalType": "bool",
          "name": "",
          "type": "bool"
        }
      ],
      "stateMutability": "nonpayable",
      "type": "function"
    },
    {
      "inputs": [
        {
          "internalType": "address",
          "name": "_to",
          "type": "address"
        },
        {
          "internalType": "uint256",
          "name": "_value",
          "type": "uint256"
        },
        {
          "internalType": "bytes",
          "name": "_data",
          "type": "bytes"
        }
      ],
      "name": "transferAndCall",
      "outputs": [
        {
          "internalType": "bool",
          "name": "success",
          "type": "bool"
        }
      ],
      "stateMutability": "nonpayable",
      "type": "function"
    },
    {
      "inputs": [
        {
          "internalType": "address",
          "name": "from",
          "type": "address"
        },
        {
          "internalType": "address",
          "name": "to",
          "type": "address"
        },
        {
          "internalType": "uint256",
          "name": "amount",
          "type": "uint256"
        }
      ],
      "name": "transferFrom",
      "outputs": [
        {
          "internalType": "bool",
          "name": "",
          "type": "bool"
        }
      ],
      "stateMutability": "nonpayable",
      "type": "function"
    },
    {
      "inputs": [],
      "name": "deposit",
      "outputs": [],
      "stateMutability": "payable",
      "type": "function",
      "payable": true
    },
    {
      "inputs": [
        {
          "internalType": "uint256",
          "name": "amount",
          "type": "uint256"
        }
      ],
      "name": "vuln",
      "outputs": [],
      "stateMutability": "nonpayable",
      "type": "function"
    }
  ],
  "bytecode": "0x60806040526040518060400160405280601081526020017f4552433636375265656e7472616e6379000000000000000000000000000000008152506040518060400160405280600581526020017f45363637520000000000000000000000000000000000000000000000000000008152508181818181600390805190602001906200008c92919062000247565b508060049080519060200190620000a592919062000247565b50505050505050620000be3334620000c460201b60201c565b620004a3565b600073ffffffffffffffffffffffffffffffffffffffff168273ffffffffffffffffffffffffffffffffffffffff16141562000137576040517f08c379a00000000000000000000000000000000000000000000000000000000081526004016200012e906200032f565b60405180910390fd5b6200014b600083836200023d60201b60201c565b80600260008282546200015f91906200037f565b92505081905550806000808473ffffffffffffffffffffffffffffffffffffffff1673ffffffffffffffffffffffffffffffffffffffff1681526020019081526020016000206000828254620001b691906200037f565b925050819055508173ffffffffffffffffffffffffffffffffffffffff16600073ffffffffffffffffffffffffffffffffffffffff167fddf252ad1be2c89b69c2b068fc378daa952ba7f163c4a11628f55a4df523b3ef836040516200021d919062000351565b60405180910390a362000239600083836200024260201b60201c565b5050565b505050565b505050565b8280546200025590620003e6565b90600052602060002090601f016020900481019282620002795760008555620002c5565b82601f106200029457805160ff1916838001178555620002c5565b82800160010185558215620002c5579182015b82811115620002c4578251825591602001919060010190620002a7565b5b509050620002d49190620002d8565b5090565b5b80821115620002f3576000816000905550600101620002d9565b5090565b600062000306601f836200036e565b915062000313826200047a565b602082019050919050565b6200032981620003dc565b82525050565b600060208201905081810360008301526200034a81620002f7565b9050919050565b60006020820190506200036860008301846200031e565b92915050565b600082825260208201905092915050565b60006200038c82620003dc565b91506200039983620003dc565b9250827fffffffffffffffffffffffffffffffffffffffffffffffffffffffffffffffff03821115620003d157620003d06200041c565b5b828201905092915050565b6000819050919050565b60006002820490506001821680620003ff57607f821691505b602082108114156200041657620004156200044b565b5b50919050565b7f4e487b7100000000000000000000000000000000000000000000000000000000600052601160045260246000fd5b7f4e487b7100000000000000000000000000000000000000000000000000000000600052602260045260246000fd5b7f45524332303a206d696e7420746f20746865207a65726f206164647265737300600082015250565b611ac280620004b36000396000f3fe6080604052600436106100e85760003560e01c806370a082311161008a578063a9059cbb11610059578063a9059cbb14610344578063d0e30db014610381578063dd62ed3e1461038b578063e3bb15f0146103c8576100e8565b806370a082311461026257806391cbc4781461029f57806395d89b41146102dc578063a457c2d714610307576100e8565b806323b872dd116100c657806323b872dd14610180578063313ce567146101bd57806339509351146101e85780634000aea014610225576100e8565b806306fdde03146100ed578063095ea7b31461011857806318160ddd14610155575b600080fd5b3480156100f957600080fd5b506101026103f1565b60405161010f919061141a565b60405180910390f35b34801561012457600080fd5b5061013f600480360381019061013a919061111f565b610483565b60405161014c91906113ff565b60405180910390f35b34801561016157600080fd5b5061016a6104a6565b604051610177919061153c565b60405180910390f35b34801561018c57600080fd5b506101a760048036038101906101a291906110cc565b6104b0565b6040516101b491906113ff565b60405180910390f35b3480156101c957600080fd5b506101d26104df565b6040516101df9190611587565b60405180910390f35b3480156101f457600080fd5b5061020f600480360381019061020a919061111f565b6104e8565b60405161021c91906113ff565b60405180910390f35b34801561023157600080fd5b5061024c6004803603810190610247919061115f565b61051f565b60405161025991906113ff565b60405180910390f35b34801561026e57600080fd5b506102896004803603810190610284919061105f565b6105b8565b604051610296919061153c565b60405180910390f35b3480156102ab57600080fd5b506102c660048036038101906102c1919061105f565b610600565b6040516102d3919061153c565b60405180910390f35b3480156102e857600080fd5b506102f1610618565b6040516102fe919061141a565b60405180910390f35b34801561031357600080fd5b5061032e6004803603810190610329919061111f565b6106aa565b60405161033b91906113ff565b60405180910390f35b34801561035057600080fd5b5061036b6004803603810190610366919061111f565b610721565b60405161037891906113ff565b60405180910390f35b610389610744565b005b34801561039757600080fd5b506103b260048036038101906103ad919061108c565b610750565b6040516103bf919061153c565b60405180910390f35b3480156103d457600080fd5b506103ef60048036038101906103ea91906111ce565b6107d7565b005b6060600380546104009061171d565b80601f016020809104026020016040519081016040528092919081815260200182805461042c9061171d565b80156104795780601f1061044e57610100808354040283529160200191610479565b820191906000526020600020905b81548152906001019060200180831161045c57829003601f168201915b5050505050905090565b60008061048e6108ee565b905061049b8185856108f6565b600191505092915050565b6000600254905090565b6000806104bb6108ee565b90506104c8858285610ac1565b6104d3858585610b4d565b60019150509392505050565b60006012905090565b6000806104f36108ee565b90506105148185856105058589610750565b61050f9190611630565b6108f6565b600191505092915050565b600061052b8484610721565b508373ffffffffffffffffffffffffffffffffffffffff163373ffffffffffffffffffffffffffffffffffffffff167fe19260aff97b920c7df27010903aeb9c8d2be5d310a2c67824cf3f15396e4c16858560405161058b929190611557565b60405180910390a361059c84610dce565b156105ad576105ac848484610de1565b5b600190509392505050565b60008060008373ffffffffffffffffffffffffffffffffffffffff1673ffffffffffffffffffffffffffffffffffffffff168152602001908152602001600020549050919050565b60056020528060005260406000206000915090505481565b6060600480546106279061171d565b80601f01602080910402602001604051908101604052809291908181526020018280546106539061171d565b80156106a05780601f10610675576101008083540402835291602001916106a0565b820191906000526020600020905b81548152906001019060200180831161068357829003601f168201915b5050505050905090565b6000806106b56108ee565b905060006106c38286610750565b905083811015610708576040517f08c379a00000000000000000000000000000000000000000000000000000000081526004016106ff906114fc565b60405180910390fd5b61071582868684036108f6565b60019250505092915050565b60008061072c6108ee565b9050610739818585610b4d565b600191505092915050565b61074e3334610e5b565b565b6000600160008473ffffffffffffffffffffffffffffffffffffffff1673ffffffffffffffffffffffffffffffffffffffff16815260200190815260200160002060008373ffffffffffffffffffffffffffffffffffffffff1673ffffffffffffffffffffffffffffffffffffffff16815260200190815260200160002054905092915050565b6107e0336105b8565b8110156107ec57600080fd5b6000600560003373ffffffffffffffffffffffffffffffffffffffff1673ffffffffffffffffffffffffffffffffffffffff168152602001908152602001600020541480610878575042600560003373ffffffffffffffffffffffffffffffffffffffff1673ffffffffffffffffffffffffffffffffffffffff16815260200190815260200160002054105b156108eb5761089733826040518060200160405280600081525061051f565b5062093a80426108a79190611630565b600560003373ffffffffffffffffffffffffffffffffffffffff1673ffffffffffffffffffffffffffffffffffffffff168152602001908152602001600020819055505b50565b600033905090565b600073ffffffffffffffffffffffffffffffffffffffff168373ffffffffffffffffffffffffffffffffffffffff161415610966576040517f08c379a000000000000000000000000000000000000000000000000000000000815260040161095d906114dc565b60405180910390fd5b600073ffffffffffffffffffffffffffffffffffffffff168273ffffffffffffffffffffffffffffffffffffffff1614156109d6576040517f08c379a00000000000000000000000000000000000000000000000000000000081526004016109cd9061145c565b60405180910390fd5b80600160008573ffffffffffffffffffffffffffffffffffffffff1673ffffffffffffffffffffffffffffffffffffffff16815260200190815260200160002060008473ffffffffffffffffffffffffffffffffffffffff1673ffffffffffffffffffffffffffffffffffffffff168152602001908152602001600020819055508173ffffffffffffffffffffffffffffffffffffffff168373ffffffffffffffffffffffffffffffffffffffff167f8c5be1e5ebec7d5bd14f71427d1e84f3dd0314c0f7b2291e5b200ac8c7c3b92583604051610ab4919061153c565b60405180910390a3505050565b6000610acd8484610750565b90507fffffffffffffffffffffffffffffffffffffffffffffffffffffffffffffffff8114610b475781811015610b39576040517f08c379a0000000000000000000000000000000000000000000000000000000008152600401610b309061147c565b60405180910390fd5b610b4684848484036108f6565b5b50505050565b600073ffffffffffffffffffffffffffffffffffffffff168373ffffffffffffffffffffffffffffffffffffffff161415610bbd576040517f08c379a0000000000000000000000000000000000000000000000000000000008152600401610bb4906114bc565b60405180910390fd5b600073ffffffffffffffffffffffffffffffffffffffff168273ffffffffffffffffffffffffffffffffffffffff161415610c2d576040517f08c379a0000000000000000000000000000000000000000000000000000000008152600401610c249061143c565b60405180910390fd5b610c38838383610fbb565b60008060008573ffffffffffffffffffffffffffffffffffffffff1673ffffffffffffffffffffffffffffffffffffffff16815260200190815260200160002054905081811015610cbe576040517f08c379a0000000000000000000000000000000000000000000000000000000008152600401610cb59061149c565b60405180910390fd5b8181036000808673ffffffffffffffffffffffffffffffffffffffff1673ffffffffffffffffffffffffffffffffffffffff16815260200190815260200160002081905550816000808573ffffffffffffffffffffffffffffffffffffffff1673ffffffffffffffffffffffffffffffffffffffff1681526020019081526020016000206000828254610d519190611630565b925050819055508273ffffffffffffffffffffffffffffffffffffffff168473ffffffffffffffffffffffffffffffffffffffff167fddf252ad1be2c89b69c2b068fc378daa952ba7f163c4a11628f55a4df523b3ef84604051610db5919061153c565b60405180910390a3610dc8848484610fc0565b50505050565b600080823b905060008111915050919050565b60008390508073ffffffffffffffffffffffffffffffffffffffff1663a4c0ed363385856040518463ffffffff1660e01b8152600401610e23939291906113c1565b600060405180830381600087803b158015610e3d57600080fd5b505af1158015610e51573d6000803e3d6000fd5b5050505050505050565b600073ffffffffffffffffffffffffffffffffffffffff168273ffffffffffffffffffffffffffffffffffffffff161415610ecb576040517f08c379a0000000000000000000000000000000000000000000000000000000008152600401610ec29061151c565b60405180910390fd5b610ed760008383610fbb565b8060026000828254610ee99190611630565b92505081905550806000808473ffffffffffffffffffffffffffffffffffffffff1673ffffffffffffffffffffffffffffffffffffffff1681526020019081526020016000206000828254610f3e9190611630565b925050819055508173ffffffffffffffffffffffffffffffffffffffff16600073ffffffffffffffffffffffffffffffffffffffff167fddf252ad1be2c89b69c2b068fc378daa952ba7f163c4a11628f55a4df523b3ef83604051610fa3919061153c565b60405180910390a3610fb760008383610fc0565b5050565b505050565b505050565b6000610fd8610fd3846115c7565b6115a2565b905082815260208101848484011115610ff457610ff3611812565b5b610fff8482856116db565b509392505050565b60008135905061101681611a5e565b92915050565b600082601f8301126110315761103061180d565b5b8135611041848260208601610fc5565b91505092915050565b60008135905061105981611a75565b92915050565b6000602082840312156110755761107461181c565b5b600061108384828501611007565b91505092915050565b600080604083850312156110a3576110a261181c565b5b60006110b185828601611007565b92505060206110c285828601611007565b9150509250929050565b6000806000606084860312156110e5576110e461181c565b5b60006110f386828701611007565b935050602061110486828701611007565b92505060406111158682870161104a565b9150509250925092565b600080604083850312156111365761113561181c565b5b600061114485828601611007565b92505060206111558582860161104a565b9150509250929050565b6000806000606084860312156111785761117761181c565b5b600061118686828701611007565b93505060206111978682870161104a565b925050604084013567ffffffffffffffff8111156111b8576111b7611817565b5b6111c48682870161101c565b9150509250925092565b6000602082840312156111e4576111e361181c565b5b60006111f28482850161104a565b91505092915050565b61120481611686565b82525050565b61121381611698565b82525050565b6000611224826115f8565b61122e818561160e565b935061123e8185602086016116ea565b61124781611821565b840191505092915050565b600061125d82611603565b611267818561161f565b93506112778185602086016116ea565b61128081611821565b840191505092915050565b600061129860238361161f565b91506112a382611832565b604082019050919050565b60006112bb60228361161f565b91506112c682611881565b604082019050919050565b60006112de601d8361161f565b91506112e9826118d0565b602082019050919050565b600061130160268361161f565b915061130c826118f9565b604082019050919050565b600061132460258361161f565b915061132f82611948565b604082019050919050565b600061134760248361161f565b915061135282611997565b604082019050919050565b600061136a60258361161f565b9150611375826119e6565b604082019050919050565b600061138d601f8361161f565b915061139882611a35565b602082019050919050565b6113ac816116c4565b82525050565b6113bb816116ce565b82525050565b60006060820190506113d660008301866111fb565b6113e360208301856113a3565b81810360408301526113f58184611219565b9050949350505050565b6000602082019050611414600083018461120a565b92915050565b600060208201905081810360008301526114348184611252565b905092915050565b600060208201905081810360008301526114558161128b565b9050919050565b60006020820190508181036000830152611475816112ae565b9050919050565b60006020820190508181036000830152611495816112d1565b9050919050565b600060208201905081810360008301526114b5816112f4565b9050919050565b600060208201905081810360008301526114d581611317565b9050919050565b600060208201905081810360008301526114f58161133a565b9050919050565b600060208201905081810360008301526115158161135d565b9050919050565b6000602082019050818103600083015261153581611380565b9050919050565b600060208201905061155160008301846113a3565b92915050565b600060408201905061156c60008301856113a3565b818103602083015261157e8184611219565b90509392505050565b600060208201905061159c60008301846113b2565b92915050565b60006115ac6115bd565b90506115b8828261174f565b919050565b6000604051905090565b600067ffffffffffffffff8211156115e2576115e16117de565b5b6115eb82611821565b9050602081019050919050565b600081519050919050565b600081519050919050565b600082825260208201905092915050565b600082825260208201905092915050565b600061163b826116c4565b9150611646836116c4565b9250827fffffffffffffffffffffffffffffffffffffffffffffffffffffffffffffffff0382111561167b5761167a611780565b5b828201905092915050565b6000611691826116a4565b9050919050565b60008115159050919050565b600073ffffffffffffffffffffffffffffffffffffffff82169050919050565b6000819050919050565b600060ff82169050919050565b82818337600083830152505050565b60005b838110156117085780820151818401526020810190506116ed565b83811115611717576000848401525b50505050565b6000600282049050600182168061173557607f821691505b60208210811415611749576117486117af565b5b50919050565b61175882611821565b810181811067ffffffffffffffff82111715611777576117766117de565b5b80604052505050565b7f4e487b7100000000000000000000000000000000000000000000000000000000600052601160045260246000fd5b7f4e487b7100000000000000000000000000000000000000000000000000000000600052602260045260246000fd5b7f4e487b7100000000000000000000000000000000000000000000000000000000600052604160045260246000fd5b600080fd5b600080fd5b600080fd5b600080fd5b6000601f19601f8301169050919050565b7f45524332303a207472616e7366657220746f20746865207a65726f206164647260008201527f6573730000000000000000000000000000000000000000000000000000000000602082015250565b7f45524332303a20617070726f766520746f20746865207a65726f20616464726560008201527f7373000000000000000000000000000000000000000000000000000000000000602082015250565b7f45524332303a20696e73756666696369656e7420616c6c6f77616e6365000000600082015250565b7f45524332303a207472616e7366657220616d6f756e742065786365656473206260008201527f616c616e63650000000000000000000000000000000000000000000000000000602082015250565b7f45524332303a207472616e736665722066726f6d20746865207a65726f20616460008201527f6472657373000000000000000000000000000000000000000000000000000000602082015250565b7f45524332303a20617070726f76652066726f6d20746865207a65726f2061646460008201527f7265737300000000000000000000000000000000000000000000000000000000602082015250565b7f45524332303a2064656372656173656420616c6c6f77616e63652062656c6f7760008201527f207a65726f000000000000000000000000000000000000000000000000000000602082015250565b7f45524332303a206d696e7420746f20746865207a65726f206164647265737300600082015250565b611a6781611686565b8114611a7257600080fd5b50565b611a7e816116c4565b8114611a8957600080fd5b5056fea26469706673582212200bcb26016de58a1813b90b609df8f33728bc19086a306a2b990ab3f0a8c6529a64736f6c63430008070033",
  "immutableReferences": {},
  "source": "pragma solidity 0.8.7;\n\nimport \"./ERC677/ERC677Token.sol\";\n\ncontract ERC677Reentrancy is ERC677Token {\n\tmapping(address => uint256) public lock_times;\n\tconstructor() public payable ERC677Token(\"ERC667Reentrancy\",\"E667R\") {\n\t\t_mint(msg.sender,msg.value);\n\t}\n\tfunction deposit() public payable {\n\t\t_mint(msg.sender,msg.value);\n\t}\n\tfunction vuln(uint256 amount) public {\n\t\trequire(amount >= balanceOf(msg.sender));\n\t\tif (lock_times[msg.sender] == 0 || lock_times[msg.sender] < block.timestamp) {\n\t\t\ttransferAndCall(msg.sender,amount,\"\");\n\t\t\tlock_times[msg.sender] = block.timestamp + 7 days;\n\t\t}\n\t}\n}\n",
  "sourcePath": "/home/neo/blockfuck/git/all_reentrancy_in_one_repo/erc677_reentrancy/contracts/vuln_contract.sol",
  "compiler": {
    "name": "solc",
    "version": "0.8.7+commit.e28d00a7.Emscripten.clang"
  },
  "schemaVersion": "3.2.2-next.0",
  "updatedAt": "2022-11-07T09:17:32.862Z",
  "networkType": "ethereum",
  "devdoc": {
    "kind": "dev",
    "methods": {
      "allowance(address,address)": {
        "details": "See {IERC20-allowance}."
      },
      "approve(address,uint256)": {
        "details": "See {IERC20-approve}. NOTE: If `amount` is the maximum `uint256`, the allowance is not updated on `transferFrom`. This is semantically equivalent to an infinite approval. Requirements: - `spender` cannot be the zero address."
      },
      "balanceOf(address)": {
        "details": "See {IERC20-balanceOf}."
      },
      "decimals()": {
        "details": "Returns the number of decimals used to get its user representation. For example, if `decimals` equals `2`, a balance of `505` tokens should be displayed to a user as `5.05` (`505 / 10 ** 2`). Tokens usually opt for a value of 18, imitating the relationship between Ether and Wei. This is the value {ERC20} uses, unless this function is overridden; NOTE: This information is only used for _display_ purposes: it in no way affects any of the arithmetic of the contract, including {IERC20-balanceOf} and {IERC20-transfer}."
      },
      "decreaseAllowance(address,uint256)": {
        "details": "Atomically decreases the allowance granted to `spender` by the caller. This is an alternative to {approve} that can be used as a mitigation for problems described in {IERC20-approve}. Emits an {Approval} event indicating the updated allowance. Requirements: - `spender` cannot be the zero address. - `spender` must have allowance for the caller of at least `subtractedValue`."
      },
      "increaseAllowance(address,uint256)": {
        "details": "Atomically increases the allowance granted to `spender` by the caller. This is an alternative to {approve} that can be used as a mitigation for problems described in {IERC20-approve}. Emits an {Approval} event indicating the updated allowance. Requirements: - `spender` cannot be the zero address."
      },
      "name()": {
        "details": "Returns the name of the token."
      },
      "symbol()": {
        "details": "Returns the symbol of the token, usually a shorter version of the name."
      },
      "totalSupply()": {
        "details": "See {IERC20-totalSupply}."
      },
      "transfer(address,uint256)": {
        "details": "See {IERC20-transfer}. Requirements: - `to` cannot be the zero address. - the caller must have a balance of at least `amount`."
      },
      "transferAndCall(address,uint256,bytes)": {
        "details": "transfer token to a contract address with additional data if the recipient is a contact.",
        "params": {
          "_data": "The extra data to be passed to the receiving contract.",
          "_to": "The address to transfer to.",
          "_value": "The amount to be transferred."
        }
      },
      "transferFrom(address,address,uint256)": {
        "details": "See {IERC20-transferFrom}. Emits an {Approval} event indicating the updated allowance. This is not required by the EIP. See the note at the beginning of {ERC20}. NOTE: Does not update the allowance if the current allowance is the maximum `uint256`. Requirements: - `from` and `to` cannot be the zero address. - `from` must have a balance of at least `amount`. - the caller must have allowance for ``from``'s tokens of at least `amount`."
      }
    },
    "version": 1
  },
  "userdoc": {
    "kind": "user",
    "methods": {},
    "version": 1
  }
}