{
  "contractName": "InterfaceReentrancy",
  "abi": [
    {
      "inputs": [],
      "stateMutability": "payable",
      "type": "constructor",
      "payable": true
    },
    {
      "inputs": [
        {
          "internalType": "address",
          "name": "",
          "type": "address"
        }
      ],
      "name": "balances",
      "outputs": [
        {
          "internalType": "uint256",
          "name": "",
          "type": "uint256"
        }
      ],
      "stateMutability": "view",
      "type": "function",
      "constant": true
    },
    {
      "inputs": [],
      "name": "totalsupply",
      "outputs": [
        {
          "internalType": "uint256",
          "name": "",
          "type": "uint256"
        }
      ],
      "stateMutability": "view",
      "type": "function",
      "constant": true
    },
    {
      "inputs": [
        {
          "internalType": "uint256",
          "name": "amount",
          "type": "uint256"
        }
      ],
      "name": "vuln",
      "outputs": [],
      "stateMutability": "nonpayable",
      "type": "function"
    },
    {
      "inputs": [],
      "name": "deposit",
      "outputs": [],
      "stateMutability": "payable",
      "type": "function",
      "payable": true
    }
  ],
  "bytecode": "0x608060405234600181905550346000803373ffffffffffffffffffffffffffffffffffffffff1673ffffffffffffffffffffffffffffffffffffffff168152602001908152602001600020819055506104e18061005d6000396000f3fe60806040526004361061003f5760003560e01c806327e235e31461004457806372dd529b14610081578063d0e30db0146100ac578063e3bb15f0146100b6575b600080fd5b34801561005057600080fd5b5061006b60048036038101906100669190610311565b6100df565b6040516100789190610357565b60405180910390f35b34801561008d57600080fd5b506100966100f7565b6040516100a39190610357565b60405180910390f35b6100b46100fd565b005b3480156100c257600080fd5b506100dd60048036038101906100d8919061039e565b61016d565b005b60006020528060005260406000206000915090505481565b60015481565b346000803373ffffffffffffffffffffffffffffffffffffffff1673ffffffffffffffffffffffffffffffffffffffff168152602001908152602001600020600082825461014b91906103fa565b92505081905550346001600082825461016491906103fa565b92505081905550565b806000803373ffffffffffffffffffffffffffffffffffffffff1673ffffffffffffffffffffffffffffffffffffffff1681526020019081526020016000205410156101ee576040517f08c379a00000000000000000000000000000000000000000000000000000000081526004016101e59061048b565b60405180910390fd5b3373ffffffffffffffffffffffffffffffffffffffff1663b9d56470826040518263ffffffff1660e01b81526004016000604051808303818588803b15801561023657600080fd5b505af115801561024a573d6000803e3d6000fd5b5050505050806000803373ffffffffffffffffffffffffffffffffffffffff1673ffffffffffffffffffffffffffffffffffffffff168152602001908152602001600020600082825403925050819055508060016000828254039250508190555050565b600080fd5b600073ffffffffffffffffffffffffffffffffffffffff82169050919050565b60006102de826102b3565b9050919050565b6102ee816102d3565b81146102f957600080fd5b50565b60008135905061030b816102e5565b92915050565b600060208284031215610327576103266102ae565b5b6000610335848285016102fc565b91505092915050565b6000819050919050565b6103518161033e565b82525050565b600060208201905061036c6000830184610348565b92915050565b61037b8161033e565b811461038657600080fd5b50565b60008135905061039881610372565b92915050565b6000602082840312156103b4576103b36102ae565b5b60006103c284828501610389565b91505092915050565b7f4e487b7100000000000000000000000000000000000000000000000000000000600052601160045260246000fd5b60006104058261033e565b91506104108361033e565b9250828201905080821115610428576104276103cb565b5b92915050565b600082825260208201905092915050565b7f696e76616c696420616d6f756e74000000000000000000000000000000000000600082015250565b6000610475600e8361042e565b91506104808261043f565b602082019050919050565b600060208201905081810360008301526104a481610468565b905091905056fea264697066735822122073bb6d60f6b8285d7116a70f66c21297a71894531f148ca59cd2bf90688fa64164736f6c63430008110033",
  "immutableReferences": {},
  "source": "pragma solidity ^0.8.7;\n\ninterface IRecieverETH {\n\tfunction recvETH() external payable;\n}\n\ncontract InterfaceReentrancy {\n\tmapping (address => uint256) public balances;\n\tuint256 public totalsupply;\n\tconstructor() public payable {\n\t\ttotalsupply = msg.value;\n\t\tbalances[msg.sender] = msg.value;\n\t}\n\tfunction vuln(uint256 amount) external {\n\t\trequire(balances[msg.sender] >= amount,\"invalid amount\"); //    msg.sender       \n\t\tIRecieverETH(msg.sender).recvETH{value:amount}(); //   ,        ,  ,              fallback .\n\t\tunchecked {\n\t\t\tbalances[msg.sender]-=amount;\n\t\t\ttotalsupply-=amount;\n\t\t}\n\t}\n\tfunction deposit() external payable {\n\t\tbalances[msg.sender]+=msg.value;\n\t\ttotalsupply+=msg.value;\n\t}\n}\n",
  "sourcePath": "/home/neo/blockfuck/git/all_reentrancy_in_one_repo/interface_call_reentrancy/contracts/vuln_contract.sol",
  "compiler": {
    "name": "solc",
    "version": "0.8.17+commit.8df45f5f.Emscripten.clang"
  },
  "schemaVersion": "3.4.10",
  "updatedAt": "2022-11-07T12:41:19.920Z",
  "networkType": "ethereum",
  "devdoc": {
    "kind": "dev",
    "methods": {},
    "version": 1
  },
  "userdoc": {
    "kind": "user",
    "methods": {},
    "version": 1
  }
}