{
  "contractName": "MaxMint721",
  "abi": [
    {
      "inputs": [],
      "stateMutability": "nonpayable",
      "type": "constructor"
    },
    {
      "anonymous": false,
      "inputs": [
        {
          "indexed": true,
          "internalType": "address",
          "name": "owner",
          "type": "address"
        },
        {
          "indexed": true,
          "internalType": "address",
          "name": "approved",
          "type": "address"
        },
        {
          "indexed": true,
          "internalType": "uint256",
          "name": "tokenId",
          "type": "uint256"
        }
      ],
      "name": "Approval",
      "type": "event"
    },
    {
      "anonymous": false,
      "inputs": [
        {
          "indexed": true,
          "internalType": "address",
          "name": "owner",
          "type": "address"
        },
        {
          "indexed": true,
          "internalType": "address",
          "name": "operator",
          "type": "address"
        },
        {
          "indexed": false,
          "internalType": "bool",
          "name": "approved",
          "type": "bool"
        }
      ],
      "name": "ApprovalForAll",
      "type": "event"
    },
    {
      "anonymous": false,
      "inputs": [
        {
          "indexed": true,
          "internalType": "address",
          "name": "from",
          "type": "address"
        },
        {
          "indexed": true,
          "internalType": "address",
          "name": "to",
          "type": "address"
        },
        {
          "indexed": true,
          "internalType": "uint256",
          "name": "tokenId",
          "type": "uint256"
        }
      ],
      "name": "Transfer",
      "type": "event"
    },
    {
      "inputs": [],
      "name": "MAX_PER_USER",
      "outputs": [
        {
          "internalType": "uint256",
          "name": "",
          "type": "uint256"
        }
      ],
      "stateMutability": "view",
      "type": "function",
      "constant": true
    },
    {
      "inputs": [
        {
          "internalType": "address",
          "name": "to",
          "type": "address"
        },
        {
          "internalType": "uint256",
          "name": "tokenId",
          "type": "uint256"
        }
      ],
      "name": "approve",
      "outputs": [],
      "stateMutability": "nonpayable",
      "type": "function"
    },
    {
      "inputs": [
        {
          "internalType": "address",
          "name": "owner",
          "type": "address"
        }
      ],
      "name": "balanceOf",
      "outputs": [
        {
          "internalType": "uint256",
          "name": "",
          "type": "uint256"
        }
      ],
      "stateMutability": "view",
      "type": "function",
      "constant": true
    },
    {
      "inputs": [
        {
          "internalType": "uint256",
          "name": "tokenId",
          "type": "uint256"
        }
      ],
      "name": "getApproved",
      "outputs": [
        {
          "internalType": "address",
          "name": "",
          "type": "address"
        }
      ],
      "stateMutability": "view",
      "type": "function",
      "constant": true
    },
    {
      "inputs": [
        {
          "internalType": "address",
          "name": "owner",
          "type": "address"
        },
        {
          "internalType": "address",
          "name": "operator",
          "type": "address"
        }
      ],
      "name": "isApprovedForAll",
      "outputs": [
        {
          "internalType": "bool",
          "name": "",
          "type": "bool"
        }
      ],
      "stateMutability": "view",
      "type": "function",
      "constant": true
    },
    {
      "inputs": [],
      "name": "name",
      "outputs": [
        {
          "internalType": "string",
          "name": "",
          "type": "string"
        }
      ],
      "stateMutability": "view",
      "type": "function",
      "constant": true
    },
    {
      "inputs": [
        {
          "internalType": "uint256",
          "name": "tokenId",
          "type": "uint256"
        }
      ],
      "name": "ownerOf",
      "outputs": [
        {
          "internalType": "address",
          "name": "",
          "type": "address"
        }
      ],
      "stateMutability": "view",
      "type": "function",
      "constant": true
    },
    {
      "inputs": [
        {
          "internalType": "address",
          "name": "from",
          "type": "address"
        },
        {
          "internalType": "address",
          "name": "to",
          "type": "address"
        },
        {
          "internalType": "uint256",
          "name": "tokenId",
          "type": "uint256"
        }
      ],
      "name": "safeTransferFrom",
      "outputs": [],
      "stateMutability": "nonpayable",
      "type": "function"
    },
    {
      "inputs": [
        {
          "internalType": "address",
          "name": "from",
          "type": "address"
        },
        {
          "internalType": "address",
          "name": "to",
          "type": "address"
        },
        {
          "internalType": "uint256",
          "name": "tokenId",
          "type": "uint256"
        },
        {
          "internalType": "bytes",
          "name": "data",
          "type": "bytes"
        }
      ],
      "name": "safeTransferFrom",
      "outputs": [],
      "stateMutability": "nonpayable",
      "type": "function"
    },
    {
      "inputs": [
        {
          "internalType": "address",
          "name": "operator",
          "type": "address"
        },
        {
          "internalType": "bool",
          "name": "approved",
          "type": "bool"
        }
      ],
      "name": "setApprovalForAll",
      "outputs": [],
      "stateMutability": "nonpayable",
      "type": "function"
    },
    {
      "inputs": [
        {
          "internalType": "bytes4",
          "name": "interfaceId",
          "type": "bytes4"
        }
      ],
      "name": "supportsInterface",
      "outputs": [
        {
          "internalType": "bool",
          "name": "",
          "type": "bool"
        }
      ],
      "stateMutability": "view",
      "type": "function",
      "constant": true
    },
    {
      "inputs": [],
      "name": "symbol",
      "outputs": [
        {
          "internalType": "string",
          "name": "",
          "type": "string"
        }
      ],
      "stateMutability": "view",
      "type": "function",
      "constant": true
    },
    {
      "inputs": [
        {
          "internalType": "uint256",
          "name": "index",
          "type": "uint256"
        }
      ],
      "name": "tokenByIndex",
      "outputs": [
        {
          "internalType": "uint256",
          "name": "",
          "type": "uint256"
        }
      ],
      "stateMutability": "view",
      "type": "function",
      "constant": true
    },
    {
      "inputs": [
        {
          "internalType": "address",
          "name": "owner",
          "type": "address"
        },
        {
          "internalType": "uint256",
          "name": "index",
          "type": "uint256"
        }
      ],
      "name": "tokenOfOwnerByIndex",
      "outputs": [
        {
          "internalType": "uint256",
          "name": "",
          "type": "uint256"
        }
      ],
      "stateMutability": "view",
      "type": "function",
      "constant": true
    },
    {
      "inputs": [
        {
          "internalType": "uint256",
          "name": "tokenId",
          "type": "uint256"
        }
      ],
      "name": "tokenURI",
      "outputs": [
        {
          "internalType": "string",
          "name": "",
          "type": "string"
        }
      ],
      "stateMutability": "view",
      "type": "function",
      "constant": true
    },
    {
      "inputs": [],
      "name": "totalSupply",
      "outputs": [
        {
          "internalType": "uint256",
          "name": "",
          "type": "uint256"
        }
      ],
      "stateMutability": "view",
      "type": "function",
      "constant": true
    },
    {
      "inputs": [
        {
          "internalType": "address",
          "name": "from",
          "type": "address"
        },
        {
          "internalType": "address",
          "name": "to",
          "type": "address"
        },
        {
          "internalType": "uint256",
          "name": "tokenId",
          "type": "uint256"
        }
      ],
      "name": "transferFrom",
      "outputs": [],
      "stateMutability": "nonpayable",
      "type": "function"
    },
    {
      "inputs": [
        {
          "internalType": "uint256",
          "name": "amount",
          "type": "uint256"
        }
      ],
      "name": "mint",
      "outputs": [],
      "stateMutability": "nonpayable",
      "type": "function"
    }
  ],
  "bytecode": "0x6080604052600a80553480156200001557600080fd5b506040518060400160405280600681526020017f45524337323100000000000000000000000000000000000000000000000000008152506040518060400160405280600681526020017f455243373231000000000000000000000000000000000000000000000000000081525081600090805190602001906200009a929190620000bc565b508060019080519060200190620000b3929190620000bc565b505050620001d1565b828054620000ca906200016c565b90600052602060002090601f016020900481019282620000ee57600085556200013a565b82601f106200010957805160ff19168380011785556200013a565b828001600101855582156200013a579182015b82811115620001395782518255916020019190600101906200011c565b5b5090506200014991906200014d565b5090565b5b80821115620001685760008160009055506001016200014e565b5090565b600060028204905060018216806200018557607f821691505b602082108114156200019c576200019b620001a2565b5b50919050565b7f4e487b7100000000000000000000000000000000000000000000000000000000600052602260045260246000fd5b612dcd80620001e16000396000f3fe608060405234801561001057600080fd5b50600436106101165760003560e01c80636352211e116100a2578063a22cb46511610071578063a22cb46514610305578063b88d4fde14610321578063c7ba75481461033d578063c87b56dd1461035b578063e985e9c51461038b57610116565b80636352211e1461026b57806370a082311461029b57806395d89b41146102cb578063a0712d68146102e957610116565b806318160ddd116100e957806318160ddd146101b557806323b872dd146101d35780632f745c59146101ef57806342842e0e1461021f5780634f6ccce71461023b57610116565b806301ffc9a71461011b57806306fdde031461014b578063081812fc14610169578063095ea7b314610199575b600080fd5b61013560048036038101906101309190611f9d565b6103bb565b6040516101429190612369565b60405180910390f35b610153610435565b6040516101609190612384565b60405180910390f35b610183600480360381019061017e9190611ff7565b6104c7565b6040516101909190612302565b60405180910390f35b6101b360048036038101906101ae9190611f5d565b61050d565b005b6101bd610625565b6040516101ca9190612566565b60405180910390f35b6101ed60048036038101906101e89190611e47565b610632565b005b61020960048036038101906102049190611f5d565b610692565b6040516102169190612566565b60405180910390f35b61023960048036038101906102349190611e47565b610737565b005b61025560048036038101906102509190611ff7565b610757565b6040516102629190612566565b60405180910390f35b61028560048036038101906102809190611ff7565b6107c8565b6040516102929190612302565b60405180910390f35b6102b560048036038101906102b09190611dda565b61087a565b6040516102c29190612566565b60405180910390f35b6102d3610932565b6040516102e09190612384565b60405180910390f35b61030360048036038101906102fe9190611ff7565b6109c4565b005b61031f600480360381019061031a9190611f1d565b610a55565b005b61033b60048036038101906103369190611e9a565b610a6b565b005b610345610acd565b6040516103529190612566565b60405180910390f35b61037560048036038101906103709190611ff7565b610ad3565b6040516103829190612384565b60405180910390f35b6103a560048036038101906103a09190611e07565b610b3b565b6040516103b29190612369565b60405180910390f35b60007f780e9d63000000000000000000000000000000000000000000000000000000007bffffffffffffffffffffffffffffffffffffffffffffffffffffffff1916827bffffffffffffffffffffffffffffffffffffffffffffffffffffffff1916148061042e575061042d82610bcf565b5b9050919050565b6060600080546104449061278b565b80601f01602080910402602001604051908101604052809291908181526020018280546104709061278b565b80156104bd5780601f10610492576101008083540402835291602001916104bd565b820191906000526020600020905b8154815290600101906020018083116104a057829003601f168201915b5050505050905090565b60006104d282610cb1565b6004600083815260200190815260200160002060009054906101000a900473ffffffffffffffffffffffffffffffffffffffff169050919050565b6000610518826107c8565b90508073ffffffffffffffffffffffffffffffffffffffff168373ffffffffffffffffffffffffffffffffffffffff161415610589576040517f08c379a0000000000000000000000000000000000000000000000000000000008152600401610580906124e6565b60405180910390fd5b8073ffffffffffffffffffffffffffffffffffffffff166105a8610cfc565b73ffffffffffffffffffffffffffffffffffffffff1614806105d757506105d6816105d1610cfc565b610b3b565b5b610616576040517f08c379a000000000000000000000000000000000000000000000000000000000815260040161060d90612486565b60405180910390fd5b6106208383610d04565b505050565b6000600880549050905090565b61064361063d610cfc565b82610dbd565b610682576040517f08c379a000000000000000000000000000000000000000000000000000000000815260040161067990612546565b60405180910390fd5b61068d838383610e52565b505050565b600061069d8361087a565b82106106de576040517f08c379a00000000000000000000000000000000000000000000000000000000081526004016106d5906123a6565b60405180910390fd5b600660008473ffffffffffffffffffffffffffffffffffffffff1673ffffffffffffffffffffffffffffffffffffffff168152602001908152602001600020600083815260200190815260200160002054905092915050565b61075283838360405180602001604052806000815250610a6b565b505050565b6000610761610625565b82106107a2576040517f08c379a000000000000000000000000000000000000000000000000000000000815260040161079990612506565b60405180910390fd5b600882815481106107b6576107b5612924565b5b90600052602060002001549050919050565b6000806002600084815260200190815260200160002060009054906101000a900473ffffffffffffffffffffffffffffffffffffffff169050600073ffffffffffffffffffffffffffffffffffffffff168173ffffffffffffffffffffffffffffffffffffffff161415610871576040517f08c379a0000000000000000000000000000000000000000000000000000000008152600401610868906124c6565b60405180910390fd5b80915050919050565b60008073ffffffffffffffffffffffffffffffffffffffff168273ffffffffffffffffffffffffffffffffffffffff1614156108eb576040517f08c379a00000000000000000000000000000000000000000000000000000000081526004016108e290612466565b60405180910390fd5b600360008373ffffffffffffffffffffffffffffffffffffffff1673ffffffffffffffffffffffffffffffffffffffff168152602001908152602001600020549050919050565b6060600180546109419061278b565b80601f016020809104026020016040519081016040528092919081815260200182805461096d9061278b565b80156109ba5780601f1061098f576101008083540402835291602001916109ba565b820191906000526020600020905b81548152906001019060200180831161099d57829003601f168201915b5050505050905090565b600a54816109d13361087a565b6109db919061261a565b1115610a1c576040517f08c379a0000000000000000000000000000000000000000000000000000000008152600401610a1390612526565b60405180910390fd5b60005b81811015610a51576000610a31610625565b9050610a3d33826110b9565b508080610a49906127ee565b915050610a1f565b5050565b610a67610a60610cfc565b83836110d7565b5050565b610a7c610a76610cfc565b83610dbd565b610abb576040517f08c379a0000000000000000000000000000000000000000000000000000000008152600401610ab290612546565b60405180910390fd5b610ac784848484611244565b50505050565b600a5481565b6060610ade82610cb1565b6000610ae86112a0565b90506000815111610b085760405180602001604052806000815250610b33565b80610b12846112b7565b604051602001610b239291906122de565b6040516020818303038152906040525b915050919050565b6000600560008473ffffffffffffffffffffffffffffffffffffffff1673ffffffffffffffffffffffffffffffffffffffff16815260200190815260200160002060008373ffffffffffffffffffffffffffffffffffffffff1673ffffffffffffffffffffffffffffffffffffffff16815260200190815260200160002060009054906101000a900460ff16905092915050565b60007f80ac58cd000000000000000000000000000000000000000000000000000000007bffffffffffffffffffffffffffffffffffffffffffffffffffffffff1916827bffffffffffffffffffffffffffffffffffffffffffffffffffffffff19161480610c9a57507f5b5e139f000000000000000000000000000000000000000000000000000000007bffffffffffffffffffffffffffffffffffffffffffffffffffffffff1916827bffffffffffffffffffffffffffffffffffffffffffffffffffffffff1916145b80610caa5750610ca982611418565b5b9050919050565b610cba81611482565b610cf9576040517f08c379a0000000000000000000000000000000000000000000000000000000008152600401610cf0906124c6565b60405180910390fd5b50565b600033905090565b816004600083815260200190815260200160002060006101000a81548173ffffffffffffffffffffffffffffffffffffffff021916908373ffffffffffffffffffffffffffffffffffffffff160217905550808273ffffffffffffffffffffffffffffffffffffffff16610d77836107c8565b73ffffffffffffffffffffffffffffffffffffffff167f8c5be1e5ebec7d5bd14f71427d1e84f3dd0314c0f7b2291e5b200ac8c7c3b92560405160405180910390a45050565b600080610dc9836107c8565b90508073ffffffffffffffffffffffffffffffffffffffff168473ffffffffffffffffffffffffffffffffffffffff161480610e0b5750610e0a8185610b3b565b5b80610e4957508373ffffffffffffffffffffffffffffffffffffffff16610e31846104c7565b73ffffffffffffffffffffffffffffffffffffffff16145b91505092915050565b8273ffffffffffffffffffffffffffffffffffffffff16610e72826107c8565b73ffffffffffffffffffffffffffffffffffffffff1614610ec8576040517f08c379a0000000000000000000000000000000000000000000000000000000008152600401610ebf906123e6565b60405180910390fd5b600073ffffffffffffffffffffffffffffffffffffffff168273ffffffffffffffffffffffffffffffffffffffff161415610f38576040517f08c379a0000000000000000000000000000000000000000000000000000000008152600401610f2f90612426565b60405180910390fd5b610f438383836114ee565b610f4e600082610d04565b6001600360008573ffffffffffffffffffffffffffffffffffffffff1673ffffffffffffffffffffffffffffffffffffffff1681526020019081526020016000206000828254610f9e91906126a1565b925050819055506001600360008473ffffffffffffffffffffffffffffffffffffffff1673ffffffffffffffffffffffffffffffffffffffff1681526020019081526020016000206000828254610ff5919061261a565b92505081905550816002600083815260200190815260200160002060006101000a81548173ffffffffffffffffffffffffffffffffffffffff021916908373ffffffffffffffffffffffffffffffffffffffff160217905550808273ffffffffffffffffffffffffffffffffffffffff168473ffffffffffffffffffffffffffffffffffffffff167fddf252ad1be2c89b69c2b068fc378daa952ba7f163c4a11628f55a4df523b3ef60405160405180910390a46110b4838383611602565b505050565b6110d3828260405180602001604052806000815250611607565b5050565b8173ffffffffffffffffffffffffffffffffffffffff168373ffffffffffffffffffffffffffffffffffffffff161415611146576040517f08c379a000000000000000000000000000000000000000000000000000000000815260040161113d90612446565b60405180910390fd5b80600560008573ffffffffffffffffffffffffffffffffffffffff1673ffffffffffffffffffffffffffffffffffffffff16815260200190815260200160002060008473ffffffffffffffffffffffffffffffffffffffff1673ffffffffffffffffffffffffffffffffffffffff16815260200190815260200160002060006101000a81548160ff0219169083151502179055508173ffffffffffffffffffffffffffffffffffffffff168373ffffffffffffffffffffffffffffffffffffffff167f17307eab39ab6107e8899845ad3d59bd9653f200f220920489ca2b5937696c31836040516112379190612369565b60405180910390a3505050565b61124f848484610e52565b61125b84848484611662565b61129a576040517f08c379a0000000000000000000000000000000000000000000000000000000008152600401611291906123c6565b60405180910390fd5b50505050565b606060405180602001604052806000815250905090565b606060008214156112ff576040518060400160405280600181526020017f30000000000000000000000000000000000000000000000000000000000000008152509050611413565b600082905060005b6000821461133157808061131a906127ee565b915050600a8261132a9190612670565b9150611307565b60008167ffffffffffffffff81111561134d5761134c612953565b5b6040519080825280601f01601f19166020018201604052801561137f5781602001600182028036833780820191505090505b5090505b6000851461140c5760018261139891906126a1565b9150600a856113a79190612837565b60306113b3919061261a565b60f81b8183815181106113c9576113c8612924565b5b60200101907effffffffffffffffffffffffffffffffffffffffffffffffffffffffffffff1916908160001a905350600a856114059190612670565b9450611383565b8093505050505b919050565b60007f01ffc9a7000000000000000000000000000000000000000000000000000000007bffffffffffffffffffffffffffffffffffffffffffffffffffffffff1916827bffffffffffffffffffffffffffffffffffffffffffffffffffffffff1916149050919050565b60008073ffffffffffffffffffffffffffffffffffffffff166002600084815260200190815260200160002060009054906101000a900473ffffffffffffffffffffffffffffffffffffffff1673ffffffffffffffffffffffffffffffffffffffff1614159050919050565b6114f98383836117f9565b600073ffffffffffffffffffffffffffffffffffffffff168373ffffffffffffffffffffffffffffffffffffffff16141561153c57611537816117fe565b61157b565b8173ffffffffffffffffffffffffffffffffffffffff168373ffffffffffffffffffffffffffffffffffffffff161461157a576115798382611847565b5b5b600073ffffffffffffffffffffffffffffffffffffffff168273ffffffffffffffffffffffffffffffffffffffff1614156115be576115b9816119b4565b6115fd565b8273ffffffffffffffffffffffffffffffffffffffff168273ffffffffffffffffffffffffffffffffffffffff16146115fc576115fb8282611a85565b5b5b505050565b505050565b6116118383611b04565b61161e6000848484611662565b61165d576040517f08c379a0000000000000000000000000000000000000000000000000000000008152600401611654906123c6565b60405180910390fd5b505050565b60006116838473ffffffffffffffffffffffffffffffffffffffff16611cde565b156117ec578373ffffffffffffffffffffffffffffffffffffffff1663150b7a026116ac610cfc565b8786866040518563ffffffff1660e01b81526004016116ce949392919061231d565b602060405180830381600087803b1580156116e857600080fd5b505af192505050801561171957506040513d601f19601f820116820180604052508101906117169190611fca565b60015b61179c573d8060008114611749576040519150601f19603f3d011682016040523d82523d6000602084013e61174e565b606091505b50600081511415611794576040517f08c379a000000000000000000000000000000000000000000000000000000000815260040161178b906123c6565b60405180910390fd5b805181602001fd5b63150b7a0260e01b7bffffffffffffffffffffffffffffffffffffffffffffffffffffffff1916817bffffffffffffffffffffffffffffffffffffffffffffffffffffffff1916149150506117f1565b600190505b949350505050565b505050565b6008805490506009600083815260200190815260200160002081905550600881908060018154018082558091505060019003906000526020600020016000909190919091505550565b600060016118548461087a565b61185e91906126a1565b9050600060076000848152602001908152602001600020549050818114611943576000600660008673ffffffffffffffffffffffffffffffffffffffff1673ffffffffffffffffffffffffffffffffffffffff168152602001908152602001600020600084815260200190815260200160002054905080600660008773ffffffffffffffffffffffffffffffffffffffff1673ffffffffffffffffffffffffffffffffffffffff168152602001908152602001600020600084815260200190815260200160002081905550816007600083815260200190815260200160002081905550505b6007600084815260200190815260200160002060009055600660008573ffffffffffffffffffffffffffffffffffffffff1673ffffffffffffffffffffffffffffffffffffffff16815260200190815260200160002060008381526020019081526020016000206000905550505050565b600060016008805490506119c891906126a1565b90506000600960008481526020019081526020016000205490506000600883815481106119f8576119f7612924565b5b906000526020600020015490508060088381548110611a1a57611a19612924565b5b906000526020600020018190555081600960008381526020019081526020016000208190555060096000858152602001908152602001600020600090556008805480611a6957611a686128f5565b5b6001900381819060005260206000200160009055905550505050565b6000611a908361087a565b905081600660008573ffffffffffffffffffffffffffffffffffffffff1673ffffffffffffffffffffffffffffffffffffffff168152602001908152602001600020600083815260200190815260200160002081905550806007600084815260200190815260200160002081905550505050565b600073ffffffffffffffffffffffffffffffffffffffff168273ffffffffffffffffffffffffffffffffffffffff161415611b74576040517f08c379a0000000000000000000000000000000000000000000000000000000008152600401611b6b906124a6565b60405180910390fd5b611b7d81611482565b15611bbd576040517f08c379a0000000000000000000000000000000000000000000000000000000008152600401611bb490612406565b60405180910390fd5b611bc9600083836114ee565b6001600360008473ffffffffffffffffffffffffffffffffffffffff1673ffffffffffffffffffffffffffffffffffffffff1681526020019081526020016000206000828254611c19919061261a565b92505081905550816002600083815260200190815260200160002060006101000a81548173ffffffffffffffffffffffffffffffffffffffff021916908373ffffffffffffffffffffffffffffffffffffffff160217905550808273ffffffffffffffffffffffffffffffffffffffff16600073ffffffffffffffffffffffffffffffffffffffff167fddf252ad1be2c89b69c2b068fc378daa952ba7f163c4a11628f55a4df523b3ef60405160405180910390a4611cda60008383611602565b5050565b6000808273ffffffffffffffffffffffffffffffffffffffff163b119050919050565b6000611d14611d0f846125a6565b612581565b905082815260208101848484011115611d3057611d2f612987565b5b611d3b848285612749565b509392505050565b600081359050611d5281612d3b565b92915050565b600081359050611d6781612d52565b92915050565b600081359050611d7c81612d69565b92915050565b600081519050611d9181612d69565b92915050565b600082601f830112611dac57611dab612982565b5b8135611dbc848260208601611d01565b91505092915050565b600081359050611dd481612d80565b92915050565b600060208284031215611df057611def612991565b5b6000611dfe84828501611d43565b91505092915050565b60008060408385031215611e1e57611e1d612991565b5b6000611e2c85828601611d43565b9250506020611e3d85828601611d43565b9150509250929050565b600080600060608486031215611e6057611e5f612991565b5b6000611e6e86828701611d43565b9350506020611e7f86828701611d43565b9250506040611e9086828701611dc5565b9150509250925092565b60008060008060808587031215611eb457611eb3612991565b5b6000611ec287828801611d43565b9450506020611ed387828801611d43565b9350506040611ee487828801611dc5565b925050606085013567ffffffffffffffff811115611f0557611f0461298c565b5b611f1187828801611d97565b91505092959194509250565b60008060408385031215611f3457611f33612991565b5b6000611f4285828601611d43565b9250506020611f5385828601611d58565b9150509250929050565b60008060408385031215611f7457611f73612991565b5b6000611f8285828601611d43565b9250506020611f9385828601611dc5565b9150509250929050565b600060208284031215611fb357611fb2612991565b5b6000611fc184828501611d6d565b91505092915050565b600060208284031215611fe057611fdf612991565b5b6000611fee84828501611d82565b91505092915050565b60006020828403121561200d5761200c612991565b5b600061201b84828501611dc5565b91505092915050565b61202d816126d5565b82525050565b61203c816126e7565b82525050565b600061204d826125d7565b61205781856125ed565b9350612067818560208601612758565b61207081612996565b840191505092915050565b6000612086826125e2565b61209081856125fe565b93506120a0818560208601612758565b6120a981612996565b840191505092915050565b60006120bf826125e2565b6120c9818561260f565b93506120d9818560208601612758565b80840191505092915050565b60006120f2602b836125fe565b91506120fd826129a7565b604082019050919050565b60006121156032836125fe565b9150612120826129f6565b604082019050919050565b60006121386025836125fe565b915061214382612a45565b604082019050919050565b600061215b601c836125fe565b915061216682612a94565b602082019050919050565b600061217e6024836125fe565b915061218982612abd565b604082019050919050565b60006121a16019836125fe565b91506121ac82612b0c565b602082019050919050565b60006121c46029836125fe565b91506121cf82612b35565b604082019050919050565b60006121e7603e836125fe565b91506121f282612b84565b604082019050919050565b600061220a6020836125fe565b915061221582612bd3565b602082019050919050565b600061222d6018836125fe565b915061223882612bfc565b602082019050919050565b60006122506021836125fe565b915061225b82612c25565b604082019050919050565b6000612273602c836125fe565b915061227e82612c74565b604082019050919050565b60006122966013836125fe565b91506122a182612cc3565b602082019050919050565b60006122b9602e836125fe565b91506122c482612cec565b604082019050919050565b6122d88161273f565b82525050565b60006122ea82856120b4565b91506122f682846120b4565b91508190509392505050565b60006020820190506123176000830184612024565b92915050565b60006080820190506123326000830187612024565b61233f6020830186612024565b61234c60408301856122cf565b818103606083015261235e8184612042565b905095945050505050565b600060208201905061237e6000830184612033565b92915050565b6000602082019050818103600083015261239e818461207b565b905092915050565b600060208201905081810360008301526123bf816120e5565b9050919050565b600060208201905081810360008301526123df81612108565b9050919050565b600060208201905081810360008301526123ff8161212b565b9050919050565b6000602082019050818103600083015261241f8161214e565b9050919050565b6000602082019050818103600083015261243f81612171565b9050919050565b6000602082019050818103600083015261245f81612194565b9050919050565b6000602082019050818103600083015261247f816121b7565b9050919050565b6000602082019050818103600083015261249f816121da565b9050919050565b600060208201905081810360008301526124bf816121fd565b9050919050565b600060208201905081810360008301526124df81612220565b9050919050565b600060208201905081810360008301526124ff81612243565b9050919050565b6000602082019050818103600083015261251f81612266565b9050919050565b6000602082019050818103600083015261253f81612289565b9050919050565b6000602082019050818103600083015261255f816122ac565b9050919050565b600060208201905061257b60008301846122cf565b92915050565b600061258b61259c565b905061259782826127bd565b919050565b6000604051905090565b600067ffffffffffffffff8211156125c1576125c0612953565b5b6125ca82612996565b9050602081019050919050565b600081519050919050565b600081519050919050565b600082825260208201905092915050565b600082825260208201905092915050565b600081905092915050565b60006126258261273f565b91506126308361273f565b9250827fffffffffffffffffffffffffffffffffffffffffffffffffffffffffffffffff0382111561266557612664612868565b5b828201905092915050565b600061267b8261273f565b91506126868361273f565b92508261269657612695612897565b5b828204905092915050565b60006126ac8261273f565b91506126b78361273f565b9250828210156126ca576126c9612868565b5b828203905092915050565b60006126e08261271f565b9050919050565b60008115159050919050565b60007fffffffff0000000000000000000000000000000000000000000000000000000082169050919050565b600073ffffffffffffffffffffffffffffffffffffffff82169050919050565b6000819050919050565b82818337600083830152505050565b60005b8381101561277657808201518184015260208101905061275b565b83811115612785576000848401525b50505050565b600060028204905060018216806127a357607f821691505b602082108114156127b7576127b66128c6565b5b50919050565b6127c682612996565b810181811067ffffffffffffffff821117156127e5576127e4612953565b5b80604052505050565b60006127f98261273f565b91507fffffffffffffffffffffffffffffffffffffffffffffffffffffffffffffffff82141561282c5761282b612868565b5b600182019050919050565b60006128428261273f565b915061284d8361273f565b92508261285d5761285c612897565b5b828206905092915050565b7f4e487b7100000000000000000000000000000000000000000000000000000000600052601160045260246000fd5b7f4e487b7100000000000000000000000000000000000000000000000000000000600052601260045260246000fd5b7f4e487b7100000000000000000000000000000000000000000000000000000000600052602260045260246000fd5b7f4e487b7100000000000000000000000000000000000000000000000000000000600052603160045260246000fd5b7f4e487b7100000000000000000000000000000000000000000000000000000000600052603260045260246000fd5b7f4e487b7100000000000000000000000000000000000000000000000000000000600052604160045260246000fd5b600080fd5b600080fd5b600080fd5b600080fd5b6000601f19601f8301169050919050565b7f455243373231456e756d657261626c653a206f776e657220696e646578206f7560008201527f74206f6620626f756e6473000000000000000000000000000000000000000000602082015250565b7f4552433732313a207472616e7366657220746f206e6f6e20455243373231526560008201527f63656976657220696d706c656d656e7465720000000000000000000000000000602082015250565b7f4552433732313a207472616e736665722066726f6d20696e636f72726563742060008201527f6f776e6572000000000000000000000000000000000000000000000000000000602082015250565b7f4552433732313a20746f6b656e20616c7265616479206d696e74656400000000600082015250565b7f4552433732313a207472616e7366657220746f20746865207a65726f2061646460008201527f7265737300000000000000000000000000000000000000000000000000000000602082015250565b7f4552433732313a20617070726f766520746f2063616c6c657200000000000000600082015250565b7f4552433732313a2061646472657373207a65726f206973206e6f74206120766160008201527f6c6964206f776e65720000000000000000000000000000000000000000000000602082015250565b7f4552433732313a20617070726f76652063616c6c6572206973206e6f7420746f60008201527f6b656e206f776e6572206e6f7220617070726f76656420666f7220616c6c0000602082015250565b7f4552433732313a206d696e7420746f20746865207a65726f2061646472657373600082015250565b7f4552433732313a20696e76616c696420746f6b656e2049440000000000000000600082015250565b7f4552433732313a20617070726f76616c20746f2063757272656e74206f776e6560008201527f7200000000000000000000000000000000000000000000000000000000000000602082015250565b7f455243373231456e756d657261626c653a20676c6f62616c20696e646578206f60008201527f7574206f6620626f756e64730000000000000000000000000000000000000000602082015250565b7f657863656564206d617820706572207573657200000000000000000000000000600082015250565b7f4552433732313a2063616c6c6572206973206e6f7420746f6b656e206f776e6560008201527f72206e6f7220617070726f766564000000000000000000000000000000000000602082015250565b612d44816126d5565b8114612d4f57600080fd5b50565b612d5b816126e7565b8114612d6657600080fd5b50565b612d72816126f3565b8114612d7d57600080fd5b50565b612d898161273f565b8114612d9457600080fd5b5056fea264697066735822122048de3c7d89c0622252c2556db2b5f19f11b2941b0948658f3ee4fbbdaa34b12a64736f6c63430008070033",
  "immutableReferences": {},
  "source": "pragma solidity ^0.8.7;\n\nimport \"@openzeppelin/contracts/token/ERC721/extensions/ERC721Enumerable.sol\";\n\n// INSECURE IMPLEMENTATION\n// =======================\ncontract MaxMint721 is ERC721Enumerable {\n  uint public MAX_PER_USER = 10;\n\n  constructor() ERC721(\"ERC721\",\"ERC721\") {}\n\n  function mint(uint amount) external {\n    require(balanceOf(msg.sender) + amount <= MAX_PER_USER, \"exceed max per user\");\n    for (uint256 i = 0; i < amount; i++) {\n      uint mintIndex = totalSupply();\n      _safeMint(msg.sender, mintIndex); //   ,    _safeMint   onERC721Received.             .\n    }\n  }\n}\n",
  "sourcePath": "/home/neo/blockfuck/git/all_reentrancy_in_one_repo/erc721_reentrancy/contracts/vuln_contract.sol",
  "compiler": {
    "name": "solc",
    "version": "0.8.7+commit.e28d00a7.Emscripten.clang"
  },
  "schemaVersion": "3.2.2-next.0",
  "updatedAt": "2022-11-07T09:44:41.692Z",
  "networkType": "ethereum",
  "devdoc": {
    "kind": "dev",
    "methods": {
      "approve(address,uint256)": {
        "details": "See {IERC721-approve}."
      },
      "balanceOf(address)": {
        "details": "See {IERC721-balanceOf}."
      },
      "getApproved(uint256)": {
        "details": "See {IERC721-getApproved}."
      },
      "isApprovedForAll(address,address)": {
        "details": "See {IERC721-isApprovedForAll}."
      },
      "name()": {
        "details": "See {IERC721Metadata-name}."
      },
      "ownerOf(uint256)": {
        "details": "See {IERC721-ownerOf}."
      },
      "safeTransferFrom(address,address,uint256)": {
        "details": "See {IERC721-safeTransferFrom}."
      },
      "safeTransferFrom(address,address,uint256,bytes)": {
        "details": "See {IERC721-safeTransferFrom}."
      },
      "setApprovalForAll(address,bool)": {
        "details": "See {IERC721-setApprovalForAll}."
      },
      "supportsInterface(bytes4)": {
        "details": "See {IERC165-supportsInterface}."
      },
      "symbol()": {
        "details": "See {IERC721Metadata-symbol}."
      },
      "tokenByIndex(uint256)": {
        "details": "See {IERC721Enumerable-tokenByIndex}."
      },
      "tokenOfOwnerByIndex(address,uint256)": {
        "details": "See {IERC721Enumerable-tokenOfOwnerByIndex}."
      },
      "tokenURI(uint256)": {
        "details": "See {IERC721Metadata-tokenURI}."
      },
      "totalSupply()": {
        "details": "See {IERC721Enumerable-totalSupply}."
      },
      "transferFrom(address,address,uint256)": {
        "details": "See {IERC721-transferFrom}."
      }
    },
    "version": 1
  },
  "userdoc": {
    "kind": "user",
    "methods": {},
    "version": 1
  }
}